:020000040800F2
:10000000C04F0020350200083504000837040008FE
:100010003B0400083F0400084304000800000000FF
:10002000000000000000000000000000470400087D
:1000300049040008000000004B0400084D040008BB
:100040004F0200084F0200084F0200084F0200084C
:100050004F0200084F0200084F0200084F0200083C
:100060004F0200084F0200084F0200084F0200082C
:100070004F0200084F0200084F0200084F0200081C
:100080004F0200084F0200084F0200084F0200080C
:100090004F0200084F0200084F0200084F020008FC
:1000A0004F0200084F0200084F0200084F020008EC
:1000B0004F0200084F020008331600084F020008E4
:1000C0004F0200084F0200084F0200084F020008CC
:1000D0004F020008711300081F1400084F020008A7
:1000E0004F0200084F0200084F02000800F002F81B
:1000F00000F090F80AA090E8000C82448344AAF132
:100100000107DA4501D100F085F8AFF2090EBAE82F
:100110000F0013F0010F18BFFB1A43F0010318473B
:10012000CC5B0000EC5B0000103A24BF78C878C1BB
:10013000FAD8520724BF30C830C144BF04680C60ED
:10014000704700000023002400250026103A28BF35
:1001500078C1FBD8520728BF30C148BF0B60704739
:100160006E2903F0D585702904F05681662905F0C3
:10017000AE84652905F0AB84672905F0A884612960
:10018000AFF3008003681B0A28BF41F08001692992
:1001900003F08285642903F07F85752903F07C854F
:1001A0006F2904F0E180782904F02281E92904F024
:1001B0007980E42904F07680F52904F07380EF2932
:1001C00004F0DE80F82904F021810368DB0928BFF0
:1001D00041F08001632903F0E887732903F0ED877C
:1001E000E32904F01582F32904F01A8200207047F5
:1001F0001FB504F01DF904000020002104F00EFFDB
:10020000401C60600020002104F0F2FEE0601FBD91
:1002100010B510BD04F0A2FA1146FFF7E9FF00F097
:1002200029F804F0C9FA03B4FFF7F2FF03BC01F0A8
:1002300045F800000948804709480047FEE7FEE707
:10024000FEE7FEE7FEE7FEE7FEE7FEE7FEE7FEE786
:1002500004480549054A064B704700002D05000873
:10026000ED000008C0490020C04F0020C04B002016
:10027000C04B002088B04FF0000A00F059FD4FF449
:10028000A06001F025FB00F0A4FE4FF4E13001F086
:1002900023F84FF4E13001F039F900F05CFEC8209A
:1002A00000F082FD00F04CFFC82000F07DFD01F061
:1002B000C2FA4BA003F06EFB41F2883000F074FDEF
:1002C00001204F49088120E04FF47A7000F06CFD66
:1002D0004CA000F08BFC00B91CE04FF47A7000F0E9
:1002E00063FD10E000F083FA00B913E045A000F0D0
:1002F0007DFC00B90EE00AF1010000F0FF0ABAF13E
:10030000140F00DD00E0EDE700BF00F034FB002833
:10031000DAD100BF4FF4FA6000F046FD5FE000F074
:1003200072FC3AA003F036FB4FF4967000F0E0FE4A
:1003300083463849384800F0DEFD4FF4FA6000F09B
:1003400033FD00F07BFF354908604FF4FA6000F0A0
:100350002BFD01F078FA324908600021304800682E
:1003600005F036FB05D22E48006880F000402C498D
:1003700008604FF47A7000F017FD2948006805F016
:10038000C3FA04460D462548006805F0BDFA064646
:100390000F462048006805F0B7FA804689461E4897
:1003A000006805F0B1FA02460B46CDE90089CDE9B7
:1003B0000267CDE90445CDE906011A49584603F024
:1003C000F5FA19A003F0E6FA00221146584600F0AB
:1003D0005AF90A2000F0E8FC584600F07DFE9EE73E
:1003E000444854313120616E642041444320696E99
:1003F0006974207375636365737366756C6C7900DB
:10040000B8000020636865636B65640072656164B1
:10041000790D0A00080000200400002000000020E0
:100420000C000020D45A00087570646174650D0AD0
:1004300000000000704700BFFEE700BFFEE700BFFE
:10044000FEE700BFFEE77047704770477047000047
:100450000CB50020019000906B48006840F480309B
:100460006949086000BF6848006800F400300090E7
:100470000198401C0190009818B90198B0F5A06F40
:10048000F1D16148006810F4003F02D001200090D3
:1004900001E0002000900098012842D15B480068EC
:1004A00040F01000594908600846006820F0030039
:1004B00008600846006840F0020008605248406842
:1004C000514948600846406848600846406840F422
:1004D000806048600846406820F47C104860084608
:1004E000406840F4E81048600846006840F08070BA
:1004F000086000BF4448006810F0007FFAD042480E
:10050000406820F00300404948600846406840F0D9
:100510000200486000BF3C48406800F00C0008281A
:10052000F9D10CBD10B5FFF793FF10BD10B53648DB
:10053000006840F0010034490860084640683449CA
:1005400008403149486008460068324908402E4951
:1005500008600846006820F480200860084640686B
:1005600020F4FE0048604FF41F008860FFF7DAFFB8
:100570004FF000602849086010BD10B50021002030
:100580000022214B5B6803F00C0121B1042906D045
:10059000082928D107E0214B214C236027E01F4B7D
:1005A0001F4C236023E0184B5B6803F47010164B5C
:1005B0005B6803F48032022303EB904022B9194BAD
:1005C0004343174C23600DE00F4B5B6813F4003F6F
:1005D00004D0144B4343124C236003E00F4B4343BE
:1005E0000F4C236003E00D4B0D4C236000BF00BF98
:1005F000054B5B68C3F303130B4CE15C084B1B68B2
:10060000CB40074C236010BD001002400020024088
:100610000000FFF8FFFFF6FE08ED00E000127A0090
:100620001000002000093D001400002010B5044611
:10063000FC48008810F4004F0ED00020F9490988CA
:10064000C1F30E01F84A50541146F8A003F0A2F984
:1006500014B10020F349088010BD70B50446002590
:10066000F048008810F4004F0BD00020ED490988B5
:10067000C1F30E01EC4A50542146104603F09CFA97
:100680000546284670BD2DE9F04106460D46144644
:1006900000270020E34908803146E6A000F0ADFFC6
:1006A000C5B1BCB10FE00A2000F07EFBDD48008838
:1006B00010F4004F07D02846FFF7CFFF00B106E047
:1006C0000020D8490880601E80B20400EBD100BF32
:1006D00004B901273846BDE8F0812DE9F04106460E
:1006E0000D46144600270020CE4908803146D3A08D
:1006F00000F083FFC5B1BCB10FE00A2000F054FB4D
:10070000C848008810F4004F07D02846FFF7A5FF1F
:1007100000B106E00020C3490880601E80B20400DA
:10072000EBD100BF04B901273846BDE8F08110B510
:1007300000BFC348008810F0400FFAD02B20C049FA
:10074000091D08800F2000F02FFB00BFBC48008867
:1007500010F0400FFAD02B20B949091D08800F2056
:1007600000F022FB00BFB648008810F0400FFAD01E
:100770002B20B349091D08804FF4FA7000F014FBD8
:100780001422B0A1B0A0FFF77EFF10BD10B5FFF797
:10079000CEFF08B1002010BD3222ACA1ACA0FFF703
:1007A00072FFAFA0FFF759FF68B1B1A0FFF755FF87
:1007B00048B1B3A0FFF751FF28B1B5A0FFF74DFF37
:1007C00008B10020E7E70120E5E770B5FFF7AFFFCC
:1007D00008B1002070BD32229CA19DA0FFF753FFFD
:1007E000AFA0FFF73AFF05462C782046F2E770B538
:1007F000322000F07DFC0646202000F079FC054602
:10080000AA480368AA48ABA10268304603F0CEF8B4
:10081000A748B1A10268284603F0C8F8C8222946B3
:100820003046FFF730FF0446AEA003F0B3F8304681
:1008300000F052FC284600F04FFC204670BD2DE928
:10084000F041322000F054FC0746322000F050FC0A
:100850000546A6480068A6490861A64800684861A0
:1008600009E0FFF764FFC82276A1A3A0FFF70BFF02
:100870000A2000F099FA142272A173A0FFF703FF77
:100880000028EED100BF14226EA19FA0FFF7FBFE4F
:100890000028F8D1202000F02BFC0646322269A166
:1008A0009BA0FFF7F0FE142266A19CA0FFF7EBFED1
:1008B00040F6B83000F078FA8D48436999A1026992
:1008C000304603F073F84FF4FA729BA13046FFF7FD
:1008D000DAFE10B90120BDE8F0814FF47A7000F023
:1008E00063FAC82257A198A0FFF7CDFE9948036884
:1008F00099489AA10268304603F058F808E0C822E7
:100900009DA13046FFF7BFFE00B908E00120E2E7F5
:10091000C8229EA13046FFF7B6FE0028EFD100BFE7
:10092000142248A19EA0FFF7AEFE1422A0A1A1A010
:10093000FFF7A9FE4FF4FA7000F036FA002469A020
:1009400003F028F804E0601CC4B21E2C00DD03E0B4
:10095000FFF74DFF0028F6D100BF284600F0BCFB92
:10096000384600F0B9FB304600F0B6FB0CB1012070
:10097000B1E70020AFE770B504E0FFF7D8FE0A202A
:1009800000F012FA14222FA12FA0FFF77CFE0028FE
:10099000F3D1322000F0ACFB0546322229A15CA045
:1009A000FFF771FE142227A15CA0FFF76CFE4FF445
:1009B000FA6000F0F9F967480368674867A10268C0
:1009C000284602F0F3FF11E0C8226BA12846FFF78A
:1009D0005AFE00B911E0642279A12846FFF753FEC0
:1009E00020B9052042494870002070BDC82267A187
:1009F0002846FFF748FE0028E6D100BF142211A1C7
:100A000067A0FFF740FE142269A16AA0FFF73BFE32
:100A10004FF4FA7000F0C8F9002432A002F0BAFFD7
:100A2000D7E00000A00000206045002025730D0ADB
:100A30000D0A000025730D0A000000002573000058
:100A4000004400404F4B0000415400003A000000B9
:100A500041542B4349505354415455530000000016
:100A60002B4349505354415455533A300000000031
:100A70002B4349505354415455533A310000000020
:100A80002B4349505354415455533A32000000000F
:100A90002B4349505354415455533A3400000000FD
:100AA0002B4349505354415455533A0038000020C9
:100AB000340000207B224D223A22636865636B6913
:100AC0006E222C224944223A222573222C224B22C8
:100AD0003A222573227D0000224944223A224425ED
:100AE00073220000B5C7C2BC0D0A00003C00002004
:100AF000B80000204400002041542B4349504D4F82
:100B000044453D30000000004154453000000000E5
:100B100041542B43574D4F44453D310041542B52D6
:100B20005354000041542B43574A41503D222573F2
:100B3000222C22257322000057494649204449535C
:100B4000434F4E4E4543540041542B4349504D555D
:100B5000583D3000300000202C00002041542B4331
:100B6000495053544152543D22544350222C222583
:100B700073222C2573000000414C524541445920FA
:100B8000434F4E4E454354454400000057454C43A7
:100B90004F4D4520544F20424947494F54000000D3
:100BA00041542B4349504D4F44453D310000000016
:100BB0003E00000041542B43495053454E44000031
:100BC0006E6F206970000000601CC4B2032C00DD51
:100BD00003E0FFF70CFE0028F6D100BF284600F026
:100BE0007BFA0CB1012000E70020FEE670B5044658
:100BF000C822214647A0FFF746FD05460DB101205A
:100C000070BD0020FCE710B500BF08204549087002
:100C100045A0FFF7EBFF044614B9002041490881C5
:100C20005CB14048008940B93E480089401C3D49BC
:100C3000088108468089401C88813A4800893C2800
:100C400002DD07203749087036480089B0F5967FE5
:100C500002DD06203349087032480089B0F5167F5E
:100C600002DD05202F4908702E48407818B12D4824
:100C700040782C4908702B48407820B129480089D9
:100C8000401C284908812748407810B10020254998
:100C9000487024480078052806D0062817D0072871
:100CA0001CD008282AD124E00CE047F2305000F094
:100CB0007BF81DA0FFF79AFF00B9A6E747F2305076
:100CC00000F072F8FFF7BBFD0028EED19DE7FFF7BB
:100CD00052FE42F2107000F067F896E7FFF787FDCA
:100CE00010B908200F49087041F2883000F05CF814
:100CF00005E04AF6C87000F057F800E000BF00BFFA
:100D000008480078082804D040F6B83000F04CF8C5
:100D10007BE710BD7B224D223A2273746174757398
:100D2000227D0000B8000020636865636B65640085
:100D300010B56FF0040000F01BFE2D4800682D492F
:100D4000B0FBF1F02C4908700846007800EB400138
:100D5000C1EBC0104FF6FF7101EAC00027490880BF
:100D600010BD0146244A12784A434FF0E0235A61ED
:100D700000229A611A46126942F001021A6100BF0C
:100D80004FF0E022106910F0010F02D010F4803F04
:100D9000F6D04FF0E022126922F001024FF0E0237A
:100DA0001A6100229A6170470146144A12884A4328
:100DB0004FF0E0235A6100229A611A46126942F00C
:100DC00001021A6100BF4FF0E022106910F0010F1C
:100DD00002D010F4803FF6D04FF0E022126922F0EA
:100DE00001024FF0E0231A6100229A61704700006F
:100DF0001000002000127A008000002082000020F5
:100E000010B56448006820F47040624908600846E4
:100E1000006840F44050086000205F4908604FF0CF
:100E20001400FFF7C1FF01205C49C1F8AC011E208E
:100E3000FFF797FF10BD10B500245648006820F456
:100E40007040544908600846006840F4004008605B
:100E500004E0601CC4B20120FFF783FF5048006823
:100E600008B1642CF5DB642C01DB012010BD0024EB
:100E700004E0601CC4B20120FFF773FF484800681B
:100E800008B9642CF5DB642C01DB0120EEE70020BF
:100E9000ECE710B5002404E0601CC4B20120FFF7A9
:100EA00060FF3F48006808B1642CF5DB002404E0D3
:100EB000601CC4B20120FFF754FF3948006808B92C
:100EC000642CF5DB2820FFF74CFF3548006808B19B
:100ED000012010BD0020FCE770B50024002506E0CD
:100EE0006006040EFFF7D5FF0443681CC5B2082D49
:100EF000F6DB204670BD7CB505460E46FFF780FF49
:100F0000FFF799FF18BB002405E0FFF7E5FF0DF898
:100F10000400601CC4B2052CF7DB9DF800009DF8AE
:100F2000011008449DF8021008449DF8031008447D
:100F30009DF8041088420CD19DF8000004F034FDA7
:100F400030609DF8020004F02FFD286001E00120D0
:100F50007CBD0020FCE708B50121082001F08CFBD6
:100F60004FF40060ADF8000010208DF8030003205E
:100F70008DF8020069460748001F01F0C7F84FF4DA
:100F800000610448001F01F06CF9FFF739FFFFF71B
:100F900052FF08BD040C0140AC8121420080214277
:100FA0002C81214270B503460C4603E014F8015B26
:100FB00003F8015B1500A2F10102F7D170BD30B555
:100FC000034601E003F8011B1400A2F10102F9D16C
:100FD00030BD00B559494FF47072C8680021FFF761
:100FE000EEFF56494FF4705288680021FFF7E7FF83
:100FF00001205249087400BD0022002106E04F483C
:10100000C06830F8110000B1521C491CB1F5F07FE6
:10101000F5D3642050434FF4F073B0FBF3F0C0B24B
:1010200070472DE9F04106460024A0464348007C65
:1010300010B94249086880471EB94FF0FF30BDE83B
:10104000F081C6F34F1516F01F0F01D0681C85B252
:1010500040F2DF141AE03948C06830F8140020B9B3
:1010600008F101001FFA80F801E04FF00008A845E0
:101070000BD1002705E03148C068E11920F8115074
:101080007F1CAF42F7D36001D9E7641E002CE2DA7F
:101090004FF0FF30D3E770B505462848007C20B9F3
:1010A000264908688047012070BDB5F5705F11D2F0
:1010B00069092248C06830F81120002406E00020A9
:1010C0001E4BDB680E1923F81600641C9442F6DBF5
:1010D0000020E9E70220E7E770B5044604B970BDD7
:1010E00016488068251A2846FFF7D5FF00BFF6E7A7
:1010F00070B505462846FFF794FF0446601C00D1F2
:1011000070BD0E4880682044FAE770B506460C466C
:101110002046FFF786FF0546681C00D170BD0749D1
:101120008968481922463146FFF73CFF3046FFF7F1
:10113000D3FF024880682844F0E7000084000020C4
:1011400000B585B001214FF4017001F095FA4FF41C
:10115000004001F0F8F9524800F028FC002000900F
:101160008DF804008DF805004FF4602002900020F7
:10117000039001208DF810006946494800F03DFCBD
:10118000012000F0F7FD0121454800F062FC4448D1
:1011900000F081FC00BF424800F082FC0028FAD138
:1011A0003F4800F087FC00BF3D4800F088FC002865
:1011B000FAD105B000BD10B504460723012221462F
:1011C000374800F0B2FC0121354800F082FC00BF36
:1011D0000221334800F0EEFD0028F9D0304800F03D
:1011E0000BFD10BD70B50024002509E01020FFF7AD
:1011F000E2FF204484B20520FFF7D6FD681CC5B28B
:101200000A2DF3DB0A2094FBF0F080B270BD2DE9CB
:10121000F04107460C460025002608E03846FFF757
:10122000CAFF05440520FFF7BFFD701CC6B2A642E9
:10123000F4DBB5FBF4F080B2BDE8F0812DE9F05F9E
:1012400014211020FFF7E3FF8346584604F0ACFB5F
:10125000804604F059FB06464FF06632114B04F00D
:101260006BF904460D4622462B460F480F4904F001
:1012700061FA80460E4A0F4B03F0C0FF064600227B
:101280000D4B03F013FF04460D462046294604F09B
:101290000DF90FFA80FA504604F06EFBBDE8F09F9E
:1012A0000024014066664A3FE17A14AE47E1F63F0A
:1012B00022FDF675E09C713F00003940014600BFF9
:1012C000704700BF494A128812F0400FFAD0C2B2EC
:1012D000464B1B1D1A80704710B586B0044601218D
:1012E00044F2040001F0C8F94FF40070ADF81400A6
:1012F00003208DF8160018208DF8170005A93C482A
:1013000000F004FF4FF48060ADF8140004208DF865
:10131000170005A9364800F0F9FE25208DF80000D9
:1013200003208DF801008DF8020001208DF80300E4
:10133000684600F0D2FA01940020ADF80800ADF83C
:101340000A00ADF80C00ADF810000C20ADF80E004E
:1013500001A9264802F049F9012240F2255123480B
:1013600002F0DBF90121214802F0CBF906B010BDF3
:1013700010B540F225511D4802F0B4FA10B31B48D5
:1013800002F030FAC4B21B48008810F4004F2BD191
:101390001848008810F4804F0CD00A2C03D000208D
:1013A0001449088020E01348008840F400401149A7
:1013B000088019E00D2C06D10E48008840F48040CA
:1013C0000C49088010E00B480088C0F30D000A4962
:1013D0000C5408480088401C0649088008460088CC
:1013E000C72801DD0020088010BD00000038014042
:1013F00000080140980000209440002010B50446E9
:1014000044B10021954802F063F80121934801F0AE
:10141000CBFD03E00021914801F0C6FD10BD10B5E1
:1014200040F225518E4802F05DFA08B38C4802F074
:10143000D9F9C4B28B480088B0F5806F12DA002168
:10144000864802F045F88748008810B90120FFF768
:10145000D5FF844801880088401C824A1080824859
:10146000445405E07F48008840F400407D490880EE
:1014700010BD7FB505460C460121042001F009F995
:10148000ADF80450ADF800400020ADF80600ADF80E
:1014900002006946714801F02BFA012211466F489B
:1014A00001F09DFD1E208DF80C0001208DF80D002F
:1014B00002208DF80E0001208DF80F0003A800F027
:1014C0000CFA7FBD70B58CB006460C46154601215E
:1014D000084601F0C4F8304600F090FC01940295F3
:1014E000102003900020049005908020069000209A
:1014F0000790089009904FF480500A9000200B90BC
:1015000001A9304600F01CFD0CB070BD10B586B0CE
:1015100004460121042001F0AFF80121480401F044
:10152000B8F84F4802F01EF80420ADF81000032070
:101530008DF8120018208DF8130004A94B4800F014
:10154000E5FD0820ADF8100004208DF8130004A973
:10155000464800F0DBFD00940020ADF80400ADF833
:101560000600ADF80800ADF80C000C20ADF80A003C
:1015700069463B4802F039F801228021384802F0E0
:10158000F1F83B4A3649091D3A48FFF79BFF012114
:10159000334802F0B6F8012240F22551304802F0FB
:1015A000BCF826208DF8140002208DF815000320C9
:1015B0008DF8160001208DF8170005A800F08DF9B0
:1015C00041F61F4140F2E730FFF753FF0020254965
:1015D0000880FFF713FF06B010BD70B504460D4636
:1015E0000021204600F0D7FC2946204600F0E8FC08
:1015F0000121204600F0CFFC70BD0FB438B505A81E
:1016000000901B48009A049902F0B2F90020009063
:1016100000BF184800F0D6FC0028FAD1144802F0A8
:10162000DDFAC4B221461348FFF7D7FF38BC5DF896
:1016300014FB10B50121094801F07FFF60B1094892
:10164000008840F40040074908800121034801F068
:1016500085FF0020FFF7D2FE10BD0000000800400B
:1016600000440040A0000020604500200008014028
:10167000604100208000024008B50121082000F0F0
:10168000FBFF4FF48060ADF8000010208DF80300E0
:1016900003208DF8020069468B4800F037FD4FF4B7
:1016A0008061894800F0DDFD08BD08B54FF4806019
:1016B000ADF8000048208DF803006946824800F02C
:1016C00025FD08BD08B54FF48060ADF8000010207E
:1016D0008DF8030003208DF8020069467A4800F077
:1016E00015FD08BD10B5FFF7EDFF4FF4806176489A
:1016F00000F0B9FD40F2EE20FFF733FB4FF48061BC
:10170000714800F0AEFD0F20FFF72BFB10BD10B5A8
:101710000024FFF7CAFF04E0601CC4B20120FFF7F9
:1017200020FB4FF48061684800F081FD08B1642C13
:10173000F2DB642C01DB012010BD002404E0601CFE
:10174000C4B20120FFF70DFB4FF480615E4800F04A
:101750006EFD08B9F02CF2DBF02C01DB0120EBE789
:101760000020E9E710B5FFF7ADFF4FF48061564860
:1017700000F079FD0A20FFF7F4FAFFF796FF4FF427
:101780008061514800F053FD012801D1012400E09F
:1017900000242D20FFF7E5FA204610BD70B5002685
:1017A000002408E0FFF7DEFF054605FA04F03043A9
:1017B000C6B2601CC4B2082CF4DB304670BD70B5F4
:1017C0000446FFF77FFF002526E004F001066410C1
:1017D00086B14FF480613C4800F045FD0820FFF7DA
:1017E000C0FA4FF48061384800F03BFD3A20FFF723
:1017F000B8FA0FE04FF48061334800F034FD462022
:10180000FFF7AFFA4FF480612F4800F02AFD022065
:10181000FFF7A7FA681CC5B2082DD6DB70BD10B55E
:10182000FFF760FFFFF773FFCC20FFF7C8FF4420EE
:10183000FFF7C5FF10BD10B5FFF71EFFFFF752FF02
:10184000FFF765FF10BD2DE9F05FFFF74BFFFFF7D6
:101850005EFFCC20FFF7B3FF4420FFF7B0FFFFF798
:1018600041FFFFF754FFCC20FFF7A9FFBE20FFF791
:10187000A6FFFFF793FF8346FFF790FF82464FEAEC
:101880000A2004B244EA0B04002C0DDAE043401CA9
:1018900003F03BFE074600220C4B03F04DFE0546CD
:1018A00003F0D2FB81460BE0204603F02EFE0746F4
:1018B0000022064B03F040FE054603F0C5FB8146BF
:1018C0004846BDE8F09F0000000C01400000B03F1A
:1018D00031490143314A1160704770B5002100233E
:1018E0000F22C4780CB32D4C246804F4E064C4F5D2
:1018F000E064210AC1F10403CA40447804FA03F108
:101900008478144021430901254C0678A1550478B8
:1019100004F01F050124AC4005786D114FF0E0265E
:1019200006EB8505C5F8004109E0047804F01F05C1
:101930000124AC401B4D0678761145F8264070BD59
:10194000194A0A400243154B1B1F1A60704739B1F0
:10195000124A121D12680243104B1B1D1A6006E04A
:101960000E4A121D126882430C4B1B1D1A607047F1
:10197000042808D14FF0E021096941F004014FF03B
:10198000E022116107E04FF0E021096921F0040134
:101990004FF0E022116170470000FA050CED00E005
:1019A00000E400E080E100E080FFFF1F10B5044686
:1019B000FA48844208D10121401500F077FE002149
:1019C000601500F073FE17E0F548844208D101214C
:1019D000001500F06BFE0021201500F067FE0BE003
:1019E000F048844208D10121C80300F05FFE0021C5
:1019F0004FF4004000F05AFE10BD30B50246002002
:101A000000235068E84C20400D790C6844EA052416
:101A1000204350609068E54C2040D1E902542C43AB
:101A20004D7944EA450420439060D06A20F4700068
:101A30000C7C641EE4B2234340EA0350D06230BD04
:101A400000210160017141718160C1600121017457
:101A5000704721B1826842F00102826003E082682F
:101A600022F001028260704721B1826842F48072E4
:101A7000826003E0826822F480728260704710B551
:101A80000023CBB21AB144681C43446002E04468AE
:101A90009C43446010BD816841F00801816070473B
:101AA000014600208A6812F0080F01D0012000E0F2
:101AB00000207047816841F0040181607047014651
:101AC00000208A6812F0040F01D0012000E00020FD
:101AD000704721B1826842F4A002826003E082680C
:101AE00022F4A00282607047014600208A6812F446
:101AF000800F01D0012000E00020704710B50A4699
:101B000000210023416821F46041531E41EA433122
:101B1000416010BD21B1426842F40062426003E0BE
:101B2000426822F4006242607047F0B504460D46F8
:101B300000200021092D11DDE068A5F10A0606EB61
:101B40004607072606FA07F18843A5F10A0606EBC1
:101B5000460603FA06F10843E0600CE0206905EB55
:101B60004507072606FA07F1884305EB450603FA01
:101B700006F108432061072A0FDA606B561E06EB58
:101B800086071F2606FA07F18843561E06EB8606CF
:101B900005FA06F10843606322E00D2A0FDA206B94
:101BA000D61F06EB86071F2606FA07F18843D61FC5
:101BB00006EB860605FA06F10843206310E0E06AAA
:101BC000A2F10D0606EB86071F2606FA07F18843E9
:101BD000A2F10D0606EB860605FA06F10843E0625F
:101BE000F0BD21B1826842F48012826003E0826815
:101BF00022F48012826070470146C86C80B2704740
:101C000066484C300068704721B1426842F48062F7
:101C1000426003E0426822F480624260704721B172
:101C2000426842F48052426003E0426822F48052EB
:101C3000426070470A460021816821F4E041114367
:101C40008160704721B1826842F40042826003E003
:101C5000826822F400428260704721B1826842F4B7
:101C60000212826003E0826822F4021282607047EE
:101C7000014600208A6812F4001F01D0012000E014
:101C800000207047F0B504461546002000220026CB
:101C9000092911DDE068A1F10A0707EB470C0727C6
:101CA00007FA0CF29043A1F10A0707EB470703FA82
:101CB00007F21043E0600CE0206901EB410C0727BC
:101CC00007FA0CF2904301EB410703FA07F21043C5
:101CD0002061A06BC0F30156EF1C06F1010CA7EBCD
:101CE0000C0707EB870C1F2707FA0CF29043EF1C39
:101CF00006F1010CA7EB0C0707EB870701FA07F2C7
:101D00001043A063F0BD10B50A4600210023816B8B
:101D100021F44011531E41EA0351816310BD08B5FF
:101D2000002300930090009B0B440093009B1A60DB
:101D300008BD08B5024600200090009201F128007D
:101D4000009B184400900098006880B208BD0A46C5
:101D500000214168164B19401143416070474162B0
:101D6000826270470A460021416821F01F01114339
:101D70004160704740B109490831096841F40001E8
:101D8000064A0832116007E004490831096821F465
:101D90000001024A0832116070470000002401402F
:101DA00000280140003C0140FFFEF0FFFDF7F1FF7D
:101DB000FFFD3FFF0246002013680B4201D00120C7
:101DC00000E000207047CA430260704770B50246C9
:101DD0000020002300240B125568CEB205EA060449
:101DE00015681D4202D00CB1012000E0002070BD3A
:101DF00000220A12D34303607047000001684FF6C7
:101E0000FE72114001600021016041608160C1608B
:101E10008C49884208D18B490839496841F00F0143
:101E2000884A083A51608AE086491431884208D1CC
:101E300084490839496841F0F001824A083A516002
:101E40007DE080492831884208D17E4908394968B7
:101E500041F470617B4A083A516070E079493C3145
:101E6000884208D177490839496841F47041754A78
:101E7000083A516063E073495031884208D1714992
:101E80000839496841F470216E4A083A516056E0B9
:101E90006C496431884208D16A490839496841F47B
:101EA0007001684A083A516049E0664978318842D1
:101EB00008D164490839496841F07061614A083ABB
:101EC00051603CE06049884206D1011F096841F039
:101ED0000F01021F116032E05B491431884208D1C2
:101EE0005949091F096841F0F001574A121F116052
:101EF00025E055492831884208D15349091F09680E
:101F000041F47061504A121F116018E04E493C3193
:101F1000884208D14C49091F096841F470414A4A76
:101F2000121F11600BE048495031884207D14649E1
:101F3000091F096841F47021434A121F116070475C
:101F400010B50022026847F6F0739A430C6A8B685A
:101F500023430C6923434C6923438C692343CC6995
:101F600023434C6A23438C6A23431A430260CB68A1
:101F700043600B6883604B68C36010BD0021016043
:101F800041608160C160016141618161C161016243
:101F900041628162704721B1026842F00102026031
:101FA00004E002684FF6FE731A40026070471AB1EF
:101FB00003680B43036002E003688B4303607047D0
:101FC000416070470146486880B270470146002072
:101FD000002211F0805F03D01B4B083B1A6802E01F
:101FE000184B083B1A680A4201D0012000E000208B
:101FF000704710F0805F03D01349091F086002E0AA
:10200000104908394860704701460020002211F04D
:10201000805F03D00C4B083B1A6802E0094B083B79
:102020001A680A4201D0012000E00020704710F039
:10203000805F03D00449091F086002E001490839A4
:1020400048607047080002400804024010B504468A
:10205000CA48844208D10121042000F027FB002156
:10206000042000F023FB46E0C548844208D101214A
:10207000082000F01BFB0021082000F017FB3AE0CD
:10208000C048844208D10121102000F00FFB00213C
:10209000102000F00BFB2EE0BB48844208D1012148
:1020A000202000F003FB0021202000F0FFFA22E0B6
:1020B000B648844208D10121402000F0F7FA0021FF
:1020C000402000F0F3FA16E0B148844208D1012123
:1020D000802000F0EBFA0021802000F0E7FA0AE00F
:1020E000AC48844207D10121801500F0DFFA0021BD
:1020F000A01500F0DBFA10BD10B50121084600F074
:10210000D5FA0021012000F0D1FA10BD2DE9F041EF
:10211000024600250026002000230024002791F815
:1021200003C00CF00F0591F803C01CF0100F03D092
:1021300091F802C04CEA050591F800C0BCF1000F0F
:1021400031D0146800202BE04FF0010C0CFA00F3A2
:10215000B1F800C00CEA03069E4220D183004FF084
:102160000F0C0CFA03F7BC4305FA03FC4CEA040419
:1021700091F803C0BCF1280F06D14FF0010C0CFA06
:1021800000FCC2F814C00AE091F803C0BCF1480F8B
:1021900005D14FF0010C0CFA00FCC2F810C0401C35
:1021A0000828D1D31460B1F800C0BCF1FF0F34DDB2
:1021B000546800202EE000F1080C4FF0010808FAE6
:1021C0000CF3B1F800C00CEA03069E4221D1830053
:1021D0004FF00F0C0CFA03F7BC4305FA03FC4CEA72
:1021E000040491F803C0BCF1280F05D100F1080CDC
:1021F00008FA0CF8C2F8148091F803C0BCF1480F3B
:1022000007D100F1080C4FF0010808FA0CF8C2F8E9
:102210001080401C0828CED35460BDE8F0814FF6F2
:10222000FF710180022181700421C1707047024654
:10223000002093680B4201D0012000E0002070478D
:102240000146886880B2704702460020D3680B427E
:1022500001D0012000E0002070470146C86880B22C
:10226000704701617047416170470AB1016100E048
:1022700041617047C16070474FF480320A43826108
:102280008161826182698269704702460020424B07
:1022900018684FF68073184040EA021008433E4B1E
:1022A000186070473D49C8617047F0B50A46002381
:1022B00000240021002500F00046B6F1004F02D1B5
:1022C000354EF16901E0344E7168C0F3034583B2C5
:1022D00000F44016B6F5401F08D121F070612E4E73
:1022E000766826F070662C4F7E6012E000F480164F
:1022F000B6F5801F06D1032606FA05F4A14341F086
:10230000706106E0460D360103FA06F6B14341F06E
:10231000706122B1460D360103FA06F6314300F032
:102320000046B6F1004F02D11B4EF16101E01A4E9A
:102330007160F0BD30B500228B071C0F0F2303FA2C
:1023400004F2154B08338C1053F824309343124C8D
:1023500008348D1044F8253023468C1053F824306F
:102360008C07240F00FA04F423430B4C08348D101F
:1023700044F8253030BD0A49086070470008014024
:10238000000C014000100140001401400018014001
:10239000001C0140002001400000014000002042DC
:1023A000DC002042DD48006840F00100DB490860A5
:1023B00008464068DA490840D8494860084600683D
:1023C000D8490840D54908600846006820F48020B4
:1023D00008600846406820F4FE0048604FF41F0083
:1023E00088607047CD49096821F48031CB4A11607B
:1023F0001146096821F480211160B0F5803F03D0B7
:10240000B0F5802F0ED106E0C449096841F480314F
:10241000C24A116007E0C149096841F4A021BF4ADE
:10242000116000E000BF00BF704710B501460022F8
:10243000002300204A11012A02D1B84C236806E08B
:10244000022A02D1B54C236A01E0B44C636A01F060
:102450001F02012494401C4201D0012000E0002012
:1024600010BD38B5002000900024002500BF3120A9
:10247000FFF7DBFF05460098401C00900098B0F580
:10248000A06F01D0002DF2D03120FFF7CEFF08B1B0
:10249000012400E00024204638BD014600209F4A68
:1024A000106820F0F80040EAC100106070479E49B3
:1024B0000860704702460020984B586820F47C1052
:1024C00042EA01031843954B5860704796490866E5
:1024D000704701460020914A506820F003000843ED
:1024E000506070478D48406800F00C00704701460E
:1024F00000208A4A506820F0F0000843506070477E
:1025000001460020854A506820F4E060084350608E
:10251000704701460020814A506820F4605040EA2C
:10252000C1005060704729B17C4A527A02437B4B0C
:102530005A7204E0794A527A8243784B5A72704751
:102540007A490860704701460020744A506820F4B8
:1025500040400843506070470021754A11706F4A2F
:1025600082F82010012802D0042808D103E00121BC
:102570006F4A117004E005216D4A117000E000BF40
:1025800000BF70476B49086070476449096A01439E
:10259000624A11627047674944390860704730B534
:1025A00000210022002400235C4D6D6805F00C0121
:1025B00021B1042905D0082923D105E05E4D05602D
:1025C00022E05D4D05601FE0544D6D6805F470120A
:1025D000524D6D6805F48034022505EB92421CB91A
:1025E000564D554305600BE04C4D6D6815F4003FAA
:1025F00003D0524D5543056002E04F4D55430560F1
:1026000002E04D4D056000BF00BF444D6D6805F010
:10261000F00109094A4D6B5C0568DD4045603F4D9E
:102620006D6805F4E061090A454D6B5C4568DD4065
:1026300085603A4D6D6805F46051C90A404D6B5C88
:102640004568DD40C560354D6D6805F44041890B36
:102650003C4D6B5CC568B5FBF3F5056130BD29B138
:102660002E4A526902432D4B5A6104E02B4A5269AB
:1026700082432A4B5A61704729B1284A9269024322
:10268000264B9A6104E0254A92698243234B9A6162
:10269000704729B1214AD2690243204BDA6104E034
:1026A0001E4AD26982431D4BDA61704729B11B4A29
:1026B000D2680243194BDA6004E0184AD2688243B8
:1026C000164BDA60704729B1144A12690243134B62
:1026D0001A6104E0114A12698243104B1A61704773
:1026E00014494039086070470F49C86470470B4966
:1026F000C87170470948406A40F0807007494862D5
:10270000704701460020054A92680A4201D0012024
:1027100000E00020704701498872704700100240B5
:102720000000FFF8FFFFF6FE00004242D8004242E0
:10273000201002408004424200127A0000093D004D
:10274000A2000020B200002010B50446FE488442DA
:1027500008D10121C014FFF7A9FF0021E014FFF701
:10276000A5FFC4E0B4F1804F08D101210846FFF76E
:10277000AAFF00210120FFF7A6FFB8E0F34884423A
:1027800008D101210220FFF79EFF00210220FFF760
:102790009AFFACE0EE48844208D101210420FFF703
:1027A00092FF00210420FFF78EFFA0E0E948844259
:1027B00008D101210820FFF786FF00210820FFF73C
:1027C00082FF94E0E448844208D101211020FFF701
:1027D0007AFF00211020FFF776FF88E0DF4884426F
:1027E00008D101212020FFF76EFF00212020FFF7F4
:1027F0006AFF7CE0DA48844208D101214014FFF7E7
:1028000055FF00216014FFF751FF70E0D548844266
:1028100009D10121C804FFF749FF00214FF400202E
:10282000FFF744FF63E0D048844209D10121080545
:10283000FFF73CFF00214FF48010FFF737FF56E011
:10284000CA48844209D101214805FFF72FFF002122
:102850004FF40010FFF72AFF49E0C548844208D131
:1028600001214020FFF72FFF00214020FFF72BFF21
:102870003DE0C048844208D101218020FFF723FFBA
:1028800000218020FFF71FFF31E0BB48844208D1C0
:1028900001218015FFF717FF0021A015FFF713FF97
:1028A00025E0B648844209D101210804FFF7FEFE65
:1028B00000214FF48030FFF7F9FE18E0B048844261
:1028C00009D101214804FFF7F1FE00214FF4003047
:1028D000FFF7ECFE0BE0AB48844208D101218804ED
:1028E000FFF7E4FE00214FF48020FFF7DFFE10BD6C
:1028F00000220288944B98420ED0994B98420BD0FC
:10290000B0F1804F08D0914B984205D0904B98423F
:1029100002D0904B984204D14FF68F731A404B88E7
:102920001A438D4B984207D08C4B984204D04FF6F7
:10293000FF431A40CB881A4302808B8883850B881B
:102940000385814B98420BD0854B984208D08B4B26
:10295000984205D08A4B984202D08A4B984201D1C6
:102960000B7A038601238382704770B5002400220E
:102970000023058C4FF6FE7635400584028C838853
:10298000048B4FF68F752C40B51E2C400D882C43C0
:10299000751E2A400D892A434D882A436A4DA84254
:1029A0000BD06F4DA84208D0744DA84205D0744D8D
:1029B000A84202D0734DA84213D14FF6F7752A40B2
:1029C0004D892A434FF6FB752A408D882A434FF6DE
:1029D000FF652B404FF6FF552B408D892B43CD894A
:1029E0002B4383800483CD888586028470BD70B5B7
:1029F000002400220023058C4FF6EF763540058435
:102A0000028C8388048B48F6FF752C404FF6FF45F7
:102A10002C400D884FF6FF7606EA05252C434FF62D
:102A2000DF752A400D8906EA05152A434D8806EA16
:102A300005152A43444DA84202D0494DA8421DD154
:102A40004FF67F752A404D894FF6FF7606EA051549
:102A50002A434FF6BF752A408D8806EA05152A439A
:102A60004FF6FF352B404FF2FF752B408D8906EA5C
:102A700085052B43CD8906EA85052B438380048396
:102A8000CD880587028470BD70B500240022002324
:102A9000058C4FF6FF6635400584028C8388848B55
:102AA0004FF68F752C404FF6FC752C400D882C434B
:102AB0004FF6FF552A400D894FF6FF7606EA0525A9
:102AC0002A434D8806EA05252A431F4DA84202D015
:102AD000234DA8421DD14FF2FF752A404D894FF674
:102AE000FF7606EA05252A434FF6FF352A408D88F2
:102AF00006EA05252A434EF6FF752B404DF6FF7575
:102B00002B408D8906EA05152B43CD8906EA05156C
:102B10002B4383808483CD888587028470BD70B504
:102B2000002200230024058C4EF6FF7635400584F4
:102B3000038C8488828B48F6FF752A404FF6FF4548
:102B40002A400D8820E00000002C014000040040D5
:102B500000080040000C004000100040001400403D
:102B600000340140004C014000500140005401403D
:102B700000180040001C00400020004000400140C0
:102B800000440140004801404FF6FF7606EA052563
:102B90002A434DF6FF752B400D8906EA05352B4378
:102BA0004D8806EA05352B43FA4DA84202D0FA4D6E
:102BB000A84208D14BF6FF752C408D894FF6FF7661
:102BC00006EA85152C4384808283CD88A0F8405086
:102BD000038470BD828B4FF2FF331A408283828B55
:102BE0004FF6FF7303EA01231A4382837047F0B55F
:102BF0000C461546002200210026078C4EF6FF7C6D
:102C000007EA0C070784828B018C4FF6FF7707EAEF
:102C1000043640F6FF473A404FF6FF7707EA0527AC
:102C20003A434FF6FF7707EA03373A43D94FB842A2
:102C30000ED0D94FB8420BD0B0F1804F08D0D74F4B
:102C4000B84205D0D64FB84202D0D64FB84206D1CE
:102C50004DF6FF77394046F48057394305E047F693
:102C6000FF57394044F48057394382830184F0BDD3
:102C7000828B4FF6F3731A408283828B0A438283DE
:102C80007047F0B50C461546002200210026078C3F
:102C90004FF6FF6C07EA0C070784828B018C4FF616
:102CA000FF7707EA04264FF60C773A404FF6FF7796
:102CB00007EA03172F433A43B64FB8420ED0B64F38
:102CC000B8420BD0B0F1804F08D0B44FB84205D015
:102CD000B34FB84202D0B34FB84206D14FF6FF57B8
:102CE000394046F48077394305E04FF2FF573940C9
:102CF00044F48077394382830184F0BD028B4FF224
:102D0000FF331A400283028B4FF6FF7303EA01235D
:102D10001A4302837047F0B50C4615460022002185
:102D20000026078C4FF6EF7C07EA0C070784028B1E
:102D3000018C4FF6FF7707EA041640F6FF473A404A
:102D40004FF6FF7707EA03373A434FF6FF7707EA74
:102D500005273A438F4FB8420ED08F4FB8420BD061
:102D6000B0F1804F08D08D4FB84205D08C4FB8429B
:102D700002D08C4FB84206D14FF6DF77394046F08B
:102D80001007394305E04FF65F77394044F01007EC
:102D9000394302830184F0BD028B4FF6F3731A406E
:102DA0000283028B0A4302837047F0B50C46154636
:102DB00000220021068C4FF6FE773E400684028BEF
:102DC000018C4FF60C7632407E1C06EA03162E4329
:102DD0003243704EB0420ED06F4EB0420BD0B0F1C5
:102DE000804F08D06D4EB04205D06D4EB04202D03B
:102DF0006C4EB04206D14FF6FD76314044F00106EC
:102E0000314305E04FF6F576314044F00106314399
:102E100002830184F0BD70B505460C465D488542CD
:102E20000ED05D4885420BD0B5F1804F08D05B488D
:102E3000854205D05A48854202D05A48854200D181
:102E400000E000BF208850B92389A2886188284605
:102E5000FFF7ABFFE1882846FFF79EFF25E02088BB
:102E600004280AD12389A28861882846FFF753FFE6
:102E7000E1882846FFF742FF17E0208808280AD19A
:102E80002389A28861882846FFF7FBFEE18828464F
:102E9000FFF7EEFE09E02389A28861882846FFF744
:102EA000A6FEE1882846FFF795FE70BD2DE9F041AA
:102EB00005460C4600260127608808B9022600E076
:102EC0000026A088012801D1022700E001272088E0
:102ED000A0B92389A28861882846FFF766FFE188A8
:102EE0002846FFF759FF23893A4631462846FFF71F
:102EF00012FFE1882846FFF701FF13E02389A2882B
:102F000061882846FFF707FFE1882846FFF7F6FEAD
:102F100023893A4631462846FFF747FFE18828468D
:102F2000FFF73AFFBDE8F0810A884B881A438B8887
:102F30001A43CB881A430B891A434B891A438B894E
:102F40001A43A0F8442070474FF6FF71818000219A
:102F50000180C18041800172704700210180418061
:102F60008180C180018141818181C18170470021BF
:102F700001804180012181800021C1800181704751
:102F80000021018041808180C18001814181818156
:102F900070470000002C0140003401400004004054
:102FA00000080040000C004021B1028842F00102FC
:102FB000028004E002884FF6FE731A4002807047D8
:102FC00031B1B0F8442042F40042A0F8442005E0BA
:102FD000B0F84420C2F30E02A0F8442070471AB1A2
:102FE00083890B43838102E083898B43838170470C
:102FF0008182704741EA0203A0F8483070471AB155
:1030000083890B43838102E083898B4383817047EB
:1030100001894FF6F8721140018170470A4600217C
:1030200001894FF68F73194011430181704730B504
:1030300004460D4629462046FFF7F0FF208940F060
:103040000700208130BD2DE9F04104460D461646AB
:103050001F46602D06D13B46012231462046FFF730
:103060005AFE05E03B46012231462046FFF79DFE11
:1030700029462046FFF7D2FF208940F00700208133
:10308000BDE8F08130B50C4600210189C9B24FF688
:10309000FF7505EA0325154325432943018130BD0A
:1030A0002DE9F04105460E46174698460024434652
:1030B0003A4631462846FFF7E5FF2C894FF6F8706F
:1030C000044044F007044FF68F70044044F070044D
:1030D0002C81BDE8F081F0B504460D4616461F462A
:1030E0003B46324629462046FFF7CCFF208940F474
:1030F00080402081F0BD0185828270470A46002110
:1031000001884FF68F731940114301807047F0B565
:103110000C4615461E460021002200230189028B21
:10312000038C4FF6F877394021434FF6FC473A407D
:1031300040F201173A434FF6DD773B404FF6FF77F9
:1031400007EA06172F433B43018102830384F0BD46
:103150000A460021018B4FF68F73194011430183FA
:1031600070470A460021018B48F6FF7319404FF65D
:10317000FF7303EA02231943018370470A460021C3
:10318000818B4FF68F7319401143818370470A4634
:103190000021818B48F6FF7319404FF6FF7303EA55
:1031A000022319438183704721B1028842F08002D3
:1031B000028004E002884FF67F731A400280704755
:1031C00021B1828842F00402828004E082884FF6B6
:1031D000FB731A408280704721B1828842F0080256
:1031E000828004E082884FF6F7731A40828070472D
:1031F00021B1828842F00102828004E082884FF689
:10320000FE731A40828070470A460021018B4FF6F8
:10321000F77319401143018370470A460021018B5F
:103220004FF2FF7319404FF6FF7303EA022319436D
:10323000018370470A460021818B4FF6F7731940CE
:103240001143818370470A460021818B4FF2FF733F
:1032500019404FF6FF7303EA022319438183704735
:103260000A460021018B4FF6FB731940114301837D
:1032700070470A460021018B4FF6FF3319404FF685
:10328000FF7303EA02231943018370470A460021B2
:10329000818B4FF6FB7319401143818370470A46B7
:1032A0000021818B4FF6FF3319404FF6FF7303EA7D
:1032B00002231943818370470A460021018B4FF690
:1032C0007F7319401143018370470A460021018B27
:1032D000C1F30E014FF6FF7303EA02231943018382
:1032E00070470A460021818B4FF67F7319401143C6
:1032F000818370470A460021818BC1F30E014FF68E
:10330000FF7303EA02231943818370470A460021B1
:10331000018C4FF6FD7319401143018470470A4632
:103320000021018C4FF6F773194011430184704757
:103330000A460021018C4FF6DF7319404FF6FF73E8
:1033400003EA02131943018470470A460021018CE5
:103350004FF67F7319404FF6FF7303EA02131943C8
:10336000018470470A460021018C4FF6FF53194033
:103370004FF6FF7303EA02231943018470470A469C
:103380000021018C4FF2FF7319404FF6FF7303EADF
:1033900002231943018470470A460021018C4DF62F
:1033A000FF7319404FF6FF7303EA02331943018498
:1033B000704730B5002301248C40A3B2048C9C4399
:1033C0000484048C02FA01F5ADB22C43048430BDB0
:1033D00030B5002304248C40A3B2048C9C430484A5
:1033E000048C02FA01F5ADB22C43048430BD70B5F3
:1033F0000346002000241846183001258D40ACB249
:103400001D8CA5431D8409B1082909D100EB610079
:10341000056825F0700505600568154305600EE038
:103420000D1FC5F34E052844056825F4E0450560E9
:1034300005684FF6FF7606EA02263543056070BD43
:1034400021B1028842F00202028004E002884FF6B5
:10345000FD731A400280704721B1028842F00402D5
:10346000028004E002884FF6FB731A400280704726
:1034700021B1828842F08002828004E082884FF687
:103480007F731A408280704702884FF6F7731A40A4
:10349000028002880A430280704782884FF68F7349
:1034A0001A40828082880A438280704702894FF6E0
:1034B000F8731A40028102890A4302817047028927
:1034C0004FF67F731A40028102890A4302817047D6
:1034D0008184704781857047818670470187704776
:1034E00081877047A0F84010704702884FF6FF436D
:1034F0001A40028002880A43028070470146888E83
:1035000070470146088F70470146888F7047014613
:10351000B1F8400070470146888C70470146088D1D
:10352000704702460020138A0B4201D0012000E0C0
:1035300000207047CA430282704730B5024600201F
:1035400000230024158A05EA0103958905EA010490
:1035500013B10CB1012000E0002030BDCA4302824B
:103560007047000010B50446FB48844209D1012190
:103570008803FFF79BF800214FF48040FFF796F88F
:1035800032E0F648844209D101214804FFF79BF854
:1035900000214FF40030FFF796F825E0F048844210
:1035A00009D101218804FFF78EF800214FF4802013
:1035B000FFF789F818E0EB48844209D10121C804DB
:1035C000FFF781F800214FF40020FFF77CF80BE0B3
:1035D000E548844208D101210805FFF774F800216D
:1035E0004FF48010FFF76FF810BD2DE9F04786B05B
:1035F00005460E460024A24600BFA1460027B0891A
:1036000000B100BF2F462C8A4CF6FF700440F088B2
:1036100004432C82AC894EF6F3100440B088318903
:103620000843718908430443AC81AC8A4FF6FF40DC
:103630000440B0890443AC8201A8FEF7B0FFC6483D
:10364000874202D1DDF810A001E0DDF80CA0A889C6
:1036500010F4004F08D00AEBCA0000EB0A103168E2
:103660004900B0FBF1F807E00AEBCA0000EB0A10D2
:1036700031688900B0FBF1F86420B8FBF0F0040178
:103680002009642101FB1089A88910F4004F08D09B
:10369000322000EBC900B0FBF1F000F0070004435A
:1036A00008E0322000EB09106421B0FBF1F000F0DB
:1036B0000F0004432C8106B0BDE8F0874FF416518B
:1036C000016000218180C18001810C2141810021A4
:1036D0008181704710B502460020108A4FF2FF0327
:1036E00018400B884C8823438C882343CC88234381
:1036F0001843108210BD0021018041808180C1806B
:10370000704721B1828942F40052828104E08289AB
:103710004DF6FF731A4082817047F0B503460024CE
:10372000002600250020A1F510676A3F00D100BFE8
:103730001846C1F3421401F01F06012707FA06F5E7
:10374000012C01D10C3004E0022C01D1103000E03A
:1037500014301AB107682F43076002E00768AF43CF
:103760000760F0BD1AB1838A0B43838202E0838A2B
:103770008B4383827047028A4FF6F0731A400282AD
:10378000028A0A430282704782894FF2FF731A400D
:10379000828182890A438281704721B1828942F005
:1037A0000202828104E082894FF6FD731A40828111
:1037B0007047028A4FF6DF731A400282028A0A4378
:1037C0000282704721B1028A42F48042028204E000
:1037D000028A4BF6FF731A4002827047C1F3080257
:1037E0008280704701468888C0F30800704781894D
:1037F00041F0010181817047028BD2B20283028BBA
:1038000042EA012202837047028B02F47F42028364
:10381000028B0A430283704721B1828A42F0200260
:10382000828204E0828A4FF6DF731A4082827047F8
:1038300021B1828A42F01002828204E0828A4FF62D
:10384000EF731A408282704721B1828A42F00802E7
:10385000828204E0828A4FF6F7731A4082827047B0
:1038600021B1828942F40042828103E08289C2F35D
:103870000E028281704721B1828A42F40062828204
:1038800004E0828A4FF2FF731A4082827047828A74
:103890004FF6FB731A408282828A0A438282704703
:1038A00021B1828A42F00202828204E0828A4FF6CB
:1038B000FD731A408282704702460020B1F5007FF6
:1038C00000D100BF13880B4201D0012000E000208E
:1038D000704701F40072B2F5007F00D100BFCA4307
:1038E0000280704770B502460024002300250020A6
:1038F000A1F510666A3E00D100BFC1F3421501F088
:103900001F03012606FA03F3012D02D196893340E5
:1039100006E0022D02D1168A334001E0968A334038
:103920000C12012606FA04F41688344013B10CB1C7
:10393000012000E0002070BD10B500220023A1F599
:1039400010646A3C00D100BF0A1201249440A3B263
:10395000DC43048010BD00000038014000440040FA
:1039600000480040004C00400050004070470000FC
:103970001CB50C46064B7B4469460090204600F07F
:10398000F2FB04460020694600F000FC20461CBD06
:10399000130800000FB4044910B503AA029800F000
:1039A00011FC10BC5DF814FB9C0000200FB41CB58A
:1039B000084B06AA7B4469460090059800F0D3FBAB
:1039C00004460020694600F0E1FB20461CBC5DF87F
:1039D00014FB0000D507000070B50C460546012A0F
:1039E00005D02878800600D5EA69002302E001238B
:1039F00005E05B1C934202D2E05C0028F9D1A86983
:103A0000E618C01AA861286A18442862284600F0FF
:103A100008F904E0D5E9012114F8010B9047B442FC
:103A2000F8D3284600F014F970BD00002DE9F05FCE
:103A3000894604464FF0000ADFF878B1FB44C0F82D
:103A400020A02046E1688847002875D0252806D0A8
:103A5000D4E901219047206A401C2062F1E700264A
:103A60005F462046E16888472028054608DB312D5F
:103A700006D207EB050010F8200C08B10643F0E76A
:103A8000B00701D526F00406C4F81CA00027C4F82E
:103A900018A02A2D09D0284601F0A3FA38B304EB68
:103AA0008708303DC8F8185019E059F8041B204623
:103AB00004EB87029161E1688847012F054618D120
:103AC000E069002820DA26F020061DE0D8F818006A
:103AD00000EB800005EB40003038C8F818002046A5
:103AE000E1688847054601F07CFA0028EED1012FF5
:103AF0000AD02E2D08D12046E16888477F1C054654
:103B0000022F46F02006C4DBA069002803DA4042F9
:103B100046F00106A061F00701D026F010066C2DDA
:103B20000BD0682D09D04C2D39D06A2D35D0742D8D
:103B300035D07A2D33D016E038E0E1682F462046A4
:103B40008847B842054609D16C2F26D04FF48060D3
:103B5000E168064320468847054604E06C2F1AD0EA
:103B60004FF4807006430DB3A5F14100192802D827
:103B7000203546F400664A462946204626604E46D1
:103B8000FCF7EEFA80B101280BD0F61D26F00700F5
:103B900000F1080955E74020E4E78020D8E700203D
:103BA000D6E706F104094CE7284651E7206ABDE84C
:103BB000F09F0000E920000030B505460B462A467C
:103BC00013F8014B12F8010B08B1A042F8D01CB158
:103BD000002802D06D1CF1E7284630BD10B5431C0B
:103BE00002E010F8011B71B18107FAD14FF00132E8
:103BF00002C88C1A8C4314EAC211F9D0C01A0A0602
:103C000003D0C01E10BDC01A10BD0A0401D0801E12
:103C100010BD0902FCD0401E10BD704770477047B0
:103C2000704770B5044685690068C10601D5302625
:103C300000E02026C00708D070BDD4E9012130463D
:103C40009047206A00F1010020626D1EF5D570BD1D
:103C500070B5044685690078C00708D170BDD4E905
:103C6000012120209047206A00F1010020626D1E92
:103C7000F5D570BD09684A0501D540B27047C90540
:103C8000FCD500B2704709684A0501D5C0B270473B
:103C9000C905FCD580B270472DE9F04106460024E5
:103CA00010687529314616A511D0FFF7E3FF0028EB
:103CB00003DAC0F1000013A507E031688A0701D5D7
:103CC00011A502E0490704D510A5012401E0FFF782
:103CD000DAFF00210A2306F1240707E0B0FBF3F224
:103CE00003FB1200303078541046491C0028F5D1EF
:103CF00023462A463046BDE8F04100F0E2BB000012
:103D0000000000002D0000002B000000200000003B
:103D100011680268006A530501D508700BE0D305ED
:103D200001D5088007E0130603D5C217C1E90002D8
:103D300001E0520608600120704770472DE9FF4FEF
:103D40000C461E464FF0FF378BB0D2E90001DDF87C
:103D500060800A908A46C1F30A5505B93D460021A4
:103D600008464FF00000BAF1000F00F4400005DAF9
:103D700000EB80004FF4400101EA50004FEA9059F7
:103D8000B9F1010F00DDB9460A9850EA4A000ED099
:103D900044F61050A5F2FF3545432F14B8F1000F3B
:103DA0001ED07542291E1EDDC9F100021CE0B8F1CB
:103DB000010F4FF0000001D0302103E0F24305E095
:103DC0002154401CB042FBDB30460022002121542C
:103DD0000B99C1F80880C1E900200FB0BDE8F08F51
:103DE000BD1B6D1CDEE74A4600DA694206A800F0FA
:103DF0001BFC06AB07CB03AB07C350460A9900F088
:103E000021FD8DE80700A0F500501F3800900398B1
:103E1000002D09DD42F21F014A46084403A9039020
:103E2000684600F080FF08E0A0F500504A461F38C1
:103E300003A90390684600F08AFF8DE8070000049C
:103E4000000C03D04FF0FF30410800E01046B8F1FD
:103E5000000F03D00022009215461FE0751E06D405
:103E600000F0EAFA02F1300262556D1EF8D5B34651
:103E70000122084302D000227F1C04E02078302871
:103E800001D100227F1E002A099787D01DE0112D45
:103E900007DA00F0D1FA303262556D1C50EA0102A7
:103EA000F5D108430FD10021681E05E0235C625C58
:103EB0006354491C2254401E8142F7DBAB46A81BC9
:103EC000401E099001E0009848B1002004F80B0062
:103ED0000B98099AC0F80880C0E9002B7DE71126ED
:103EE0004FF000085AE72DE9F04F88460446D21DEE
:103EF00022F0070191B0D1E90001CDE90A0101F0FA
:103F00005CF802460B98C00F01D02D2007E0206816
:103F1000810701D52B2002E0202101EAC000032AFD
:103F2000099001D0072A05DB03464146204600F0F0
:103F300025FB0FE12078800601D5E06900E006202E
:103F4000B8F1650F814606D0B8F1660F18D0B8F108
:103F5000670F72D132E00020B9F1110F009001DB40
:103F6000112301E009F101030AAA01A90CA8FFF736
:103F7000E5FEDDE90C70002609F10105834648E005
:103F800001204B4600904FF000470AAA01A90CA857
:103F9000FFF7D4FEDDE90DB00C995D46002618B997
:103FA00009F1010001EB0005B9EB050003D4C0F1F4
:103FB000FF3609F10105A5EB09002BE0B9F1010F6E
:103FC00001DA4FF001090020B9F1110F00904846C5
:103FD00001DD112300E003460AAA01A90CA8FFF79E
:103FE000ADFEDDE90C704D460026834620780007C3
:103FF0000AD4AB4500DA5D4601A8012D04DD411964
:1040000011F8011C302907D04F4502DA17F1040FCF
:1040100004DA0120824610E06D1EEEE7002F02DC7C
:10402000ED1B3E4403E0781CA84200DD0546A7EBEB
:10403000060000F1010A4FF000472078000703D482
:10404000AA4501DB4FF0FF3A0021B7F1004F0DF117
:1040500043088DF8431023D002202B23002F01DAD0
:104060007F422D234FF00A0C011EA0F1010000DC5D
:104070004FB197FBFCF10CFB11720F4602F13002BD
:1040800008F8012DF0E7A8F1010003702188090567
:1040900001D5452100E06521A0F1010800F8011CCF
:1040A00009980FA9A1EB080707F1070700B1012044
:1040B00000EB050101EBEA70A1693844A1EB0000B7
:1040C000A0F10100A0612078C00602D42046FFF7CD
:1040D000A8FD099830B1D4E901219047206A00F188
:1040E000010020622078C00620D52046FFF799FD08
:1040F0001CE0002E04DBB34502DD01A8805D00E07A
:104100003020D4E901219047206A761C401CBAF186
:10411000010A20620AD100F08BF9C0680168405C96
:10412000D4E901219047206A401C2062281EA5F195
:104130000105DEDC07E0D4E9012118F8010B904706
:10414000206A401C2062381EA7F10107F3DC2046DC
:10415000FFF77EFD022011B040E6000001694A1C15
:1041600002610878704700B58FB0CDE901310021B8
:10417000059105497944CDE9031011466846FFF7DA
:1041800055FC0FB000BD0000E5FFFFFF0A6802F814
:10419000010B0A60704710B5436913B1AFF300809B
:1041A00001E0FFF719FC012010BD127800F1240195
:1041B0000A7000224A700122EDE711684FF0FF32C9
:1041C000E9E70000074B70B50D467B44FFF7CBFFD6
:1041D0000446284600F09AFA10B14FF0FF3070BD47
:1041E000204670BDF5D0FFFF2DE9FF5F15468A46DA
:1041F0000446DFF8AC80F8440027D8E900103E46BA
:10420000CDE9001011E03AF816106A4602A800F055
:1042100081FA411C07D02178890603D5E269391853
:1042200091420ED8074406F101062078800602D597
:10423000E069B84205DDAE42E5DB3AF81600002839
:10424000E1D1A069C01BA0612046FFF7EAFCD8E9D4
:104250000010CDE90010002016E03AF818106A4668
:1042600002A800F057FA8146401C0BD000250DF142
:10427000080B05E0D4E901211BF8050090476D1CEF
:104280004D45F7D308F10100B0428046E5DB206AD6
:10429000384420622046FFF7DBFCBDE8FF9F0000AA
:1042A000421900002DE9F0418046D21D22F007029C
:1042B0000025D2E90002F52914A612D0002A06DA58
:1042C0000023D0EB030063EB020211A608E0D8F84C
:1042D00000108B0701D50FA602E0490701D50EA6F5
:1042E00001251146002408F1240704E000F0A4F899
:1042F00030323A55641C50EA0102F7D12B4632465F
:1043000021464046BDE8F04100F0DBB80000000067
:104310002D0000002B0000002000000030B4002120
:1043200000F124040CE002F0070505F130054FEA26
:10433000D20242EA4372655401F101014FEAD3030C
:1043400052EA0305EFD10468002310A2250708D51F
:1043500004F020040C4304D0C46901230CA2641EA1
:10436000C46130BC00F0ADB810B5044621461068F9
:10437000FFF789FC02462046BDE810400023CDE748
:10438000D21D22F00701D1E90023C7E70000000099
:1043900030000000F0B40D460188090502D5234C19
:1043A0007C4402E0214C7C440E34002100F12406C0
:1043B0000BE002F00F074FEA1212E75D42EA0372C8
:1043C0004FEA1313775401F1010152EA0307F0D1C8
:1043D00002780023120704D5702D06D009B11134DC
:1043E00002232246F0BC00F06CB810340123F8E739
:1043F00070B504460D4621461068FFF744FC02469E
:1044000029462046BDE870400023C3E7D21D22F0B4
:104410000703D3E90023BDE70368126843F02003D4
:1044200003600823C3610023B4E70000A017000065
:10443000004870478049002030B5B0F10A024FEAC9
:10444000900E71F100034EEA817EB0EB0E0061EB3D
:1044500091014FEA101E4EEA017E10EB0E0041EB77
:1044600011114FEA102E4EEA016E10EB0E0041EBD7
:1044700011214FEA104E4EEA014E10EB0E0041EBB7
:104480001141401841F100014FEAD00040EA41706B
:104490004FEAD10110EB80054FEA810444EA9074A1
:1044A00044EB01046D1944EB0404521BA3414FF08B
:1044B000000348BF0A3200D530BD401C41F1000165
:1044C00030BD2DE9F0470D4699469246044600F16D
:1044D00024080168880604D5E06921F010012160F4
:1044E00000E00120A84202DDA0EB050700E0002764
:1044F000A16907EB050202EB0900A1EB0000A06136
:104500002078C00602D42046FFF78BFB002608E087
:10451000D4E901211AF806009047206A401C761C55
:1045200020624E45F4DB2078C0060AD52046FFF70E
:1045300078FB06E0D4E9012130209047206A401C36
:104540002062381EA7F10107F4DC07E0D4E901215D
:1045500018F805009047206A401C2062281EA5F12B
:104560000105F3DC2046FFF773FB2078000602D537
:104570000220BDE8F0870120FBE700002DE9F041B3
:104580001F46044603260168072A01F4006004DB85
:1045900008B116A505E016A503E008B115A500E0D1
:1045A00015A521F010002060A069C01EA0610FB108
:1045B000401EA0612046FFF734FB4FB1D4E9012132
:1045C00038469047206A401C2062C01C206206E0EA
:1045D000206AFAE7D4E9012115F8010B9047761E0D
:1045E000F8D22046FFF734FBBDE8F0814E414E0083
:1045F0006E616E00494E4600696E660010B54369F3
:1046000013B1AFF3008001E0FFF7EEFD012010BD14
:10461000128800F1240182840022C2840122EDE785
:1046200011684FF0FF32E9E72DE9F0478146164661
:104630008AB035487844D0E9002380680092CDE9FB
:104640000130314878440C38D0E9022300690392E4
:104650004FF03702CDE9043041F69B30014491FB25
:10466000F2F0A0F1800502FB10141B3C02D564425D
:10467000012000E00020DFF890A080460027FA44E7
:10468000AAF1C60A0DE0E00709D03246684607EBFA
:1046900047010AEB810100F05AFB8DE80700641026
:1046A0007F1C002CEFD1184F7F44B43F17E0E80780
:1046B00013D007EB04100DF1180A90E80E00AAE8D9
:1046C0000E00C068F04201D198190890324606A940
:1046D00003A800F03CFB03AB07C36D10641C002D66
:1046E000E5D132466946B8F1000F03A802D000F0C8
:1046F0001AFB01E000F02BFBC9E90001C9F8082012
:104700000AB0BDE8F0870000B0150000007B00F0A3
:104710008000704770B516460C46054600F044F818
:10472000036893F80101012806D0FF2C0FD8185D0B
:1047300068B101202C7070BDD3F8070132462146C4
:1047400003442846BDE8704003F2071318474FF0B2
:10475000FF3070BD00487047604900207546FFF784
:10476000F9FFAE4605006946534620F0070085462E
:1047700018B020B5FBF76CFDBDE820404FF00006F7
:104780004FF000074FF000084FF0000B21F0070139
:10479000AC46ACE8C009ACE8C009ACE8C009ACE87C
:1047A000C0098D467047000010B5FFF741FE001D9F
:1047B00010BD00BF690800000446AFF3008020462A
:1047C000FBF731FD4FF0013C50F8042B51F8043B4E
:1047D0009A4221D1A2EB0C03934313EACC1317D1D5
:1047E00050F8042B51F8043B9A4215D1A2EB0C036C
:1047F000934313EACC130BD150F8042B51F8043B2C
:104800009A4209D1A2EB0C03934313EACC13DBD0F9
:104810004FF00000704700BFD01A01BAB1FA81F121
:1048200001F0180122FA01F0CB40C1F12001DBB206
:10483000C0B2C01A2CFA01F3D11A914311EAC31184
:10484000E6D170475FEA400C08BF91F0000F4FEAD5
:104850008C234FEAC12243EA51514FEA1C5018BF42
:1048600000F5F0404FEA300018BF41F000415FEA28
:104870006C5C00F02980BCF1FF3F08BF40F0804035
:104880007047130C06BF12044FF0100C4FF0000CD1
:10489000130E04BF12020CF1080C130F04BF120117
:1048A0000CF1040C930F04BF92000CF1020CD30F17
:1048B00004BF52000CF1010C11464FF00002A0F1B0
:1048C0001F00A0EB0C00704711F0004F08BF7047AD
:1048D00031F000413FF4D5AF0B0C06BF09044FF097
:1048E000100C4FF0000C0B0E04BF09020CF1080C69
:1048F0000B0F04BF09010CF1040C8B0F04BF8900DE
:104900000CF1020CCB0F04BF49000CF1010CCCF1EF
:104910002003A0EB0C0022FA03F302FA0CF241EAA6
:10492000030100F10100704720F07F4C80EA030092
:1049300023F07F47ACEB070303F57C5300F0004006
:1049400003F1FF032DE980494FEA154B09B44FEA03
:10495000144325EA0B4E24EA03480FF2042606EB23
:10496000132749083E785FEA320203FB0667C7F562
:10497000000707FB06F64FEA54374FEAD64606F122
:10498000020607FB066CCCF1005C4FEA1C472CEAE0
:10499000074C07FB06F40CFB06F504EB15464FEA43
:1049A000961634BF00204FF000404FEAD13706FB87
:1049B00007FC4FEA1C4C0CFB0BF7D21B03FB0CF75C
:1049C00061EB07010CFB0EF7B0EB074072EB1742EF
:1049D0000CFB08F734BFA2EB0742B2EB074261EBD6
:1049E00017414FEA0C444FEA910706FB07FC4FEAD8
:1049F0001C4C0CFB0BF7B0EBC74072EB573203FBC0
:104A00000CF734BFA2EBC742B2EBC74261EB5731A0
:104A10000CFB0EF7B0EBC70072EB57720CFB08F7FC
:104A200034BFA2EBC702B2EBC70261EB5771039F21
:104A30004FEA816141EA921104EBCC044FEAD1378D
:104A40004FEA826206FB07FC42EA90124FEA80605E
:104A50004FEA1C4C0CFB0BF7D21B03FB0CF761EB72
:104A600007010CFB0EF7B0EB074072EB17420CFB93
:104A700008F734BFA2EB0742B2EB074261EB1741E4
:104A80004FEA8C554FEA910704EB9C2406FB07FC88
:104A90004FEA1C4C0CFB0BF7B0EBC74072EB5732E4
:104AA00003FB0CF734BFA2EBC742B2EBC74261EB8A
:104AB00057310CFB0EF7B0EBC70072EB57720CFBD3
:104AC00008F734BFA2EBC702B2EBC70261EB577124
:104AD00015EB4C254FEA816141EA92114FEA82625F
:104AE0004FEAD13742EA901206FB07FC44F100047A
:104AF0004FEA80604FEA1C4C0CFB0BF7D21B03FB08
:104B00000CF761EB07010CFB0EF7B0EB074072EB03
:104B100017420CFB08F734BFA2EB0742B2EB074287
:104B200061EB174115EB1C154FEA813141EA9241C7
:104B30004FEA823242EA90424FEA80304FEA0C76E6
:104B400044F1000448EA03434EEA0B484FF0000EDC
:104B5000B2EB080C71EB030724BF624639464EEBFB
:104B60000E0E4FF0000B0018524149414BEB0B0B5E
:104B7000B2EB080C71EB03077BF1000B24BF62461C
:104B800039464EEB0E0E4FF0000B001852414941D2
:104B90004BEB0B0BB2EB080C71EB03077BF1000B3B
:104BA00024BF624639464EEB0E0E51EA020718BF8B
:104BB00046F0010616EB0E7655F1000254F10001A5
:104BC00003D5BDE88901BDE80088BDE88901BDE8DD
:104BD0000048B619524141EB0101A3F101037047AE
:104BE00080807F7E7D7C7B7A79787776767574732A
:104BF000727171706F6E6E6D6C6C6B6A6A696868E9
:104C0000676666656464636362616160605F5F5E7E
:104C10005E5D5D5C5C5B5B5A5A59595858575756F4
:104C20005655555554545353525252515150505059
:104C30004F4F4F4E4E4D4D4D4C4C4C4B4B4B4A4AAB
:104C40004A494949484848474747474646464545EF
:104C50004544444444434343434242424241414128
:104C6000002B26D4770021D01CB54FEA370703B4B8
:104C70004FF010004FF010014FF000000FBCBDE8E6
:104C800010400BF1010BBBF1010F08BF5FEA1707E2
:104C900022BF12F1010211F101014FF0004143F175
:104CA000000300F0004043EA00007047F9D35708C2
:104CB000DAE746EA064613F1400F4FEA16461FDDD3
:104CC00013F1200FDFBF16430A46002120335B4259
:104CD000C8D0C3F1200746EA064602FA07F74FEAB2
:104CE000164646EA0706C3F1200722FA03F201FA44
:104CF00007F721FA03F14FF0000342EA0702B1E798
:104D000046EA020646EA06464FEA164646EA010623
:104D1000BCBF46EA0646360C4FF000034FF00002D7
:104D20004FF000019EE72DE9C048934630B491E86A
:104D3000380007C831EA400C48BF34EA430C03D5B9
:104D4000FFF7F2FDFFF78CFFF0BCBDE800882DE90E
:104D5000C048934630B491E8380007C810F0804F3F
:104D600008BF13F0804F03D100F005F8FFF778FF7C
:104D7000F0BCBDE8008820F07F4780EA030023F004
:104D80007F4C07EB0C03A3F57C5300F00040A3F12C
:104D9000FE0392F0000F00F0B38095F0000F00F0DA
:104DA00077802DE901494FEA11404FEA144621EA84
:104DB000004800FB06FC24EA064708FB06F607FB52
:104DC00008F800FB07F718EB06484CEB164C4FEAC7
:104DD000124B18EB07484FEA15464CEB174022EAF6
:104DE0000B4E0BFB06FC25EA06470EFB06F607FBFF
:104DF0000EFE0BFB07F71EEB064E4CEB164C4FF06E
:104E000000061EEB074E4CEB174B18EB0B0840F15E
:104E1000000018EB0E0B58EB000840F100008F1A51
:104E20004FF000013CBFC943661B14BFB5EB040C37
:104E300000213CBFC943F61B4FEA17444EEA8E0ED1
:104E400027EA04454FEA1C4704FB07622CEA074C9B
:104E500005FB07F70CFB05F604FB0CFC16EB0746FD
:104E600042EB174216EB0C4642EB1C421BEB0606CC
:104E700058EB0202414146EA9E0601D5BDE8018990
:104E8000B619524141EB0101A3F10103BDE80189CB
:104E90004FEA14454FEA114724EA054621EA074C38
:104EA00005FB07F406FB07F70CFB06F105FB0CFC02
:104EB00011EB074144EB17444FEA124711EB0C4149
:104EC00044EB1C4422EA074C05FB07F206FB07F7FC
:104ED0000CFB06F605FB0CFC16EB074642EB1742F3
:104EE00016EB0C4642EB1C456A1854F1000148BF12
:104EF0007047B619524141EB0101A3F1010370471C
:104F000095F0000F37D04FEA11424FEA144721EADB
:104F1000024624EA074C02FB07F106FB07F70CFBED
:104F200006F402FB0CFC14EB074441EB17414FEA7B
:104F3000154714EB0C4441EB1C4125EA074C02FBDE
:104F400007F506FB07F70CFB06F602FB0CFC16EB5D
:104F5000074645EB174516EB0C4645EB1C4212196C
:104F600051F1000148BF7047B619524141EB0101B0
:104F7000A3F1010370474FEA14454FEA114724EAB1
:104F8000054621EA074C05FB07F106FB07F70CFB7A
:104F900006F24FF0000605FB0CFC12EB074241EB5A
:104FA000174112EB0C4251EB1C4148BF704792185D
:104FB00041EB0101A3F101037047490050EAC12010
:104FC00018BF04204A0D18BF40F0010040F2FF72E4
:104FD000B2EB515F08BF40F00200012808BF052076
:104FE000704730380A2801D20120704700207047EE
:104FF00010B500290AD00878002807D00548784461
:10500000FFF7E0FB002801D0002010BD02487844E3
:1050100010BD00000E0D0000060D000010B50029A7
:105020000AD00878002807D005487844FFF7CAFB63
:10503000002801D0002010BD0248784410BD0000B7
:10504000FE0C0000F60C000021F00042A2F16052BC
:10505000B2F5801F01F0004328BFD2F17F6C0BD95D
:105060005FEA001C43EAC20242EB507018BF70476F
:1050700028BF20F001007047B2F5801FBCBF184662
:1050800070474FEA410C1CF5001F02D2084600F0A1
:1050900019BD70B500F0FAFA00000089FFF7F6BFFD
:1050A0004FF00040A0F580007047000010B591EA75
:1050B000030F48BF83F0004300F14483841A71EB6F
:1050C000030C05D2121943EB0C03001B61EB0C011E
:1050D000DFF824E14FEA1154A4EB135C1EEA430FFE
:1050E00018BF9EEA445F73D023EA0E03DCF1200E62
:1050F00021EA045143F4801332D322FA0CFE10EB60
:105100000E0023FA0CFE41EB0E01CCF1200E03FA47
:105110000EFE10EB0E0051F10001B1F5801FCCF135
:10512000200E32D201EB045112FA0EF2BDE810400B
:1051300058BF7047401C38BF5FEA420218BF704733
:10514000002814BF20F0010041F100014FEA4103A3
:1051500013F5001F38BF7047A1F1C04100F0E4BA59
:10516000012A43EB0302ACF1200CDCF11F0E32BF2D
:105170004FF0000E23FA0CF310EB030041EB045147
:10518000B4EB115FD0D0A1EB045101F580114908B7
:105190005FEA300001EB04510ED350F1000038BF3C
:1051A00012FA0EFE08D1BDE81040C9E7401C38BF16
:1051B0005FEA4202CAD1C3E7BDE810404FEA4103AB
:1051C00013F5001F38BF7047A1F1C04100F0ACBA21
:1051D0009EEA445F08D011EA5E0FBDE8104004BFAC
:1051E00001F0004100207047BDE8104070B500F0AC
:1051F0004DFA00BF64FBBE3E0000E0FF2DE9C04158
:1052000030B4DFF8A0C23CEA111418BF3CEA131412
:1052100000F0EC8081EA03051CEA111444EAD5741D
:1052200018BF1CEA131500F0C780A4EB05044FF06B
:10523000004545EAC12145EAC32341EA505143EA0A
:10524000525304F17F74994204F500344FEAC020B0
:105250004FEAC22208BF904200F09C804FEA1365DB
:105260000FF24016765D4FEA134506FB05F7C7F1CE
:10527000807706FB07F74FEAD737A7FB036876422C
:10528000C8F58038A7FB06CE38BFA8F1010807FB98
:1052900008E64FF0000EA6FB028CE6FB03CEDCF125
:1052A000000CCEF1004E38BFAEF1010EA6FB0C583B
:1052B0004FF000074FF00005E6FB0E87A1FB08C684
:1052C000A0FB07CE16EB0E0645F10005E1FB0765D6
:1052D00015F1E04E7EBFA4F580345FEA46066D41CD
:1052E00016F1800745F100054FEA17274FEA0666D9
:1052F00047EA0567A6F1DE46B6F1805F4FEA15255D
:105300001FD9384624F0010C05EBC471BCF1FE6FC7
:1053100001EB0C1102D8F0BCBDE8008124425CBF57
:1053200001F5801E9EEAC47F02D4F0BCBDE8008176
:10533000244238D4F0BCA1F1C041BDE8004100F0E6
:10534000F3B94FEAD22242EA43524FEAD323A7FBF2
:1053500002864FEAD02040EA415007FB03661EEA6E
:105360000E0F4FEAD12105FB026658BFA6EB00568F
:10537000B6EB00564FEA520E4EEAC37E18EB0E0E05
:1053800056EB530EBDD518EB02085E417F1C55F15C
:105390000005B6E74FF480154FF000074FF0000608
:1053A0004FF00008ADE7F0BC4FF0000001F1C04144
:1053B00001F00041BDE8008111EA0C1F0CEA131551
:1053C00000D00CE013EA0C1F00F025804FF0000025
:1053D000F0BC81EA030101F00041BDE80081F0BCAE
:1053E000BDE8004181EA030100F09EB9F0BCBDE8D0
:1053F000004170B500F04AF9097EFC3E00F007B8A4
:1054000081EA03014FF0000001F00041704781EA9A
:10541000030100F089B9F0BCBDE800414FF0000085
:1054200021497047FFFDFBF9F7F5F4F2F0EEEDEBE3
:10543000E9E8E6E4E3E1E0DEDDDBDAD8D7D5D4D392
:10544000D1D0CFCDCCCBCAC8C7C6C5C4C2C1C0BFDE
:10545000BEBDBCBBBAB9B8B7B6B5B4B3B2B1B0AFE4
:10546000AEADACABAAA9A8A8A7A6A5A4A3A3A2A1C8
:10547000A09F9F9E9D9C9C9B9A9999989797969583
:1054800095949393929191908F8F8E8E8D8C8C8B1F
:105490008B8A8989888887878685858484838382A7
:1054A000828181800000FF070000F87F4FEA4103FE
:1054B0004FEA5353A3F58063D3F11E03C8BFD3F162
:1054C000210C0CDD4FF0004242EAC12242EA505268
:1054D00032FA03FC8CEAE17CACEBE1707047102BF4
:1054E000C4BF0020704703F5787CBCF1FF3F04D0B7
:1054F0006FF0004282EA2100704770B500F0C6F8F4
:105500004992248000207047F2E710F0004248BF23
:105510004042B0FA80F310FA03F10AD0C3F11D0340
:1055200003F580634FEA415002EB035202EBD121B5
:1055300070474FF000007047DFF848C170B51CEAB3
:10554000111E1EBF1CEA13159EEA0C0F95EA0C0FE4
:1055500000F06F8081EA030423EA4C134EEAD47E04
:1055600021EA4C1141F4801143F48013AE44A1FBB5
:10557000024CA0FB0365AEF17F7E361955EB0C059E
:10558000A1FB034C4CF10003A0FB021C16EB0C0624
:10559000654153F10003094218BF46F0010613F4B8
:1055A000007F0BD14FEA03314FEA0530340341EA63
:1055B000155140EA16506FF003020AE04FEAC3218A
:1055C0004FEAC520F40241EA555140EA56506FF0C7
:1055D000020202EB2E4201EB025585EACE710AD09F
:1055E0005FEA440C18BF24F0004450F1000041F180
:1055F000000120EAD47040F2FE7C624500D270BD0A
:10560000A84214BF4FF080444FF04044002E08BF22
:105610000024BEF1806FA8BFA1F1C041BDE8704079
:1056200080F282804FF0000001F1C04101F00041A2
:1056300070479EEA0C0F0CEA131518BF95EA0C0F81
:1056400006D04FF0000081EA030E0EF0004170BD5D
:1056500000F01CF88900013E00F007B800F009B81E
:105660004FEA430C5FEA5C5C08D081EA030100F07A
:105670005BB84FEA410C5FEA5C5CF6D14FF000008A
:10568000014970470000FF070000F87F0EF1020E8D
:105690002EF0030E5EF8046B364205D4012A43EB6C
:1056A000030515F5001F12D8012841EB010C1CF56C
:1056B000001F0CD80ED14FEAD17C15F5001F0CEB62
:1056C0004C0C0CF1020C08BF4CEBD37C04E04FF007
:1056D000080C01E04FEAD37C0CEB4C0526FA05F6EA
:1056E00006F00706B6F1040C06D20EEB860CBDE8F8
:1056F00070404CF0010C6047DFE80CF0090B02022F
:105700004FF000414FF00000A1F5002170BD194697
:105710001046012851EB010418BFD4F5001484BFD2
:10572000002001F0004170BD0808A0F500114FEA0B
:105730003101704710B591EA030F48BF83F0004371
:105740003FF5BCAC841A71EB030C07D212198CF034
:10575000004C43EB0C03001B61EB0C01DFF8A4E1F0
:105760004FEA1154A4EB135C1EEA430F18BF9EEAE4
:10577000445F00F0B08023EA6E03524221EA0451F4
:10578000C3EB6E0338BF5B1EDCF1200E25D322FA7B
:105790000CFE10EB0E0043FA0CFE41EB0E01CCF1B7
:1057A000200E03FA0EFE10EB0E0051F10001CCF1B9
:1057B000200E29D412FA0EF201EB0451BDE810407C
:1057C00058BF7047401C1CBFB2F1004F7047002803
:1057D0000CBF491C20F00100704712EB020E43EB96
:1057E000030218BF4FF0010E4EEA4202ACF1200C4A
:1057F000DCF11E0E54D943FA0CFE10EB0E0051F1F1
:10580000FF31CCF11E0ED5D50EF1010E12FA0EFEAF
:10581000404141EB010101EB445C5FEA5C5C10D963
:1058200010EBDE7001EB045138BFBEF1004FBDE854
:10583000104018BF704700280CBF491C20F0010021
:10584000704730D24FEAD42C11F5001124F40064D3
:105850001BD0B1FA81F20B3AA41AA41ED2F1200394
:10586000914030FA03F31943904001EBCC71002CC6
:1058700001EB0451BDE81040A8BF704701F1C041E1
:105880004FF0000001F000417047B0FA80F310FAC9
:1058900003F100D110BDE41A173C4805C90AE4E73A
:1058A00001EB045110BD491001EB0451BDE810405B
:1058B0004FEA300002E04FF0000170474A0008BF95
:1058C0000042F8D0B2F5001F28BF704701F0004138
:1058D0004FF0000070479EEA445F07D011EA5E0F68
:1058E000BDE8104004BF002100207047BDE8104013
:1058F00070B5FFF7CBFE00BF40DFF63E83F00041FE
:10590000104670470000E0FF43004FEAD30C4FEA17
:105910003C0C43401FBF40070CF1605113F0FE4F99
:1059200070471CF0006F03D100200CF0004170475D
:105930000CF0004343EA507010B540EACC0000F090
:105940007BF800BF000000924FEA0001FFF7ECBEB9
:105950004FF000414FF00000A1F5002170474010CA
:1059600058BFC0F14040491058BFC1F14041814289
:10597000EFF300807047000010F0004148BF404244
:10598000B0FA80F310FA03F2C3F19D030BD051EA91
:10599000C35101EB1220530638BF704700F10100DC
:1059A00008BF20F001007047B0FA80F310FA03F24C
:1059B000C3F19D030AD0D90501EB1220530638BF6D
:1059C000704700F1010008BF20F00100704700009F
:1059D00050EA010C00F113801CF5000F58BFBCF514
:1059E000000F01D48842704707D710F5000F58BF49
:1059F00011F5000F15D488427047894270471CF595
:105A0000000F04D5BCF5000FF7D5814270474FF069
:105A1000807C1CEB400F38BF1CEB410F01D2814250
:105A2000704710B500F008F8922449004FF000507C
:105A30004FF08051FFF793BF0EF1020E2EF0030ED0
:105A40005EF8044B244204D44FEA4102B2F17F4F86
:105A500011D84FEA4003B3F17F4F0CD80ED14FEA73
:105A6000D07CB2F17F4F0CEB4C0C0CF1020C08BF58
:105A70004CEBD17C04E04FF0080C01E04FEAD17C04
:105A80000CEB4C0324FA03F404F00704B4F1040C07
:105A900006D20EEB840CBDE810404CF0010C6047C0
:105AA000DFE80CF0070802024FF00040A0F580008C
:105AB00010BD0846420018BFD2F1807288BF00F0C6
:105AC000004010BDFF2141EAD050C0057047FEF7ED
:105AD0000ABA00007B224D223A2275706461746517
