:020000040800F2
:100000006007002091010008D1010008D301000819
:10001000D7010008DB010008DF0100080000000034
:10002000000000000000000000000000E3010008E4
:10003000E501000800000000E7010008E9010008F0
:10004000AB010008AB010008AB010008AB010008E0
:10005000AB010008AB010008AB0100080B1B000856
:10006000AB010008AB010008511B0008AB01000800
:10007000AB010008AB010008AB010008AB010008B0
:10008000AB010008AB010008AB010008AB010008A0
:10009000AB010008AB010008AB010008AB01000890
:1000A000AB010008AB010008AB010008AB01000880
:1000B000AB010008AB010008AB010008AB01000870
:1000C000AB010008AB010008AB010008AB01000860
:1000D000AB010008F11D0008AB010008AB010008EE
:1000E000AB010008AB010008AB01000800F002F80A
:1000F00000F03FF80AA090E8000C82448344AAF183
:100100000107DA4501D100F034F8AFF2090EBAE880
:100110000F0013F0010F18BFFB1A43F0010318473B
:100120001829000038290000103A24BF78C878C187
:10013000FAD8520724BF30C830C144BF04680C60ED
:10014000704700000023002400250026103A28BF35
:1001500078C1FBD8520728BF30C148BF0B60704739
:10016000642901F0D186002070471FB51FBD10B56E
:1001700010BD01F093FF1146FFF7F7FF00F043F9C0
:1001800001F0B1FF03B4FFF7F2FF03BC01F07AFD09
:100190000948804709480047FEE7FEE7FEE7FEE71B
:1001A000FEE7FEE7FEE7FEE7FEE7FEE70448054957
:1001B000054A064B70470000C9020008ED00000820
:1001C0006001002060070020600300206003002021
:1001D000704700BFFEE700BFFEE700BFFEE700BFBD
:1001E000FEE7704770477047704700000CB500206D
:1001F000019000906B48006840F4803069490860C5
:1002000000BF6848006800F4003000900198401C6E
:100210000190009818B90198B0F5A06FF1D161482C
:10022000006810F4003F02D00120009001E000209F
:1002300000900098012842D15B48006840F010000F
:10024000594908600846006820F003000860084625
:10025000006840F002000860524840685149486018
:100260000846406848600846406840F4806048603E
:100270000846406820F47C1048600846406840F416
:10028000E81048600846006840F08070086000BFD1
:100290004448006810F0007FFAD04248406820F0DF
:1002A0000300404948600846406840F0020048604A
:1002B00000BF3C48406800F00C000828F9D10CBD94
:1002C00010B5FFF793FF10BD10B53648006840F039
:1002D0000100344908600846406834490840314903
:1002E000486008460068324908402E4908600846C0
:1002F000006820F4802008600846406820F4FE0072
:1003000048604FF41F008860FFF7DAFF4FF000608D
:100310002849086010BD10B5002100200022214BA3
:100320005B6803F00C0121B1042906D0082928D10B
:1003300007E0214B214C236027E01F4B1F4C23601B
:1003400023E0184B5B6803F47010164B5B6803F4F2
:100350008032022303EB904022B9194B4343174CE0
:1003600023600DE00F4B5B6813F4003F04D0144B87
:100370004343124C236003E00F4B43430F4C236075
:1003800003E00D4B0D4C236000BF00BF054B5B68C5
:10039000C3F303130B4CE15C084B1B68CB40074CC9
:1003A000236010BD00100240002002400000FFF852
:1003B000FFFFF6FE08ED00E000127A0000000020CA
:1003C00000093D0004000020002106E00A2100BFD2
:1003D0000A00A1F1010399B2FAD10200A0F10103D0
:1003E00098B2F3D17047002107E042F6E06100BF08
:1003F0000A00A1F1010399B2FAD10200A0F10103B0
:1004000098B2F2D1704701F0D5FB4FF4806000F054
:100410005BF84FF4E13001F043FC01F033FA01F0F6
:1004200071FA01F09BFA16A001F02EFD4FF4FA606C
:10043000FFF7D9FF01F035FB174908800846B0F9EE
:10044000001016A001F020FD40F6B830FFF7CBFFFA
:1004500014E001F026FB1049088016A001F014FDFD
:100460004FF4FA60FFF7BFFF0B48B0F900100BA084
:1004700001F00AFD40F6B830FFF7B5FFE9E70000EC
:100480006E6F77207374696C6C20696E20736C6575
:1004900065700D0A00000000140000206E6F7720C8
:1004A0007468652074656D702069733A25640D0A5F
:1004B000000000006E6F7720697320776F726B69A0
:1004C0006E670D0A0000000031490143314A116096
:1004D000704770B5002100230F22C4780CB32D4C57
:1004E000246804F4E064C4F5E064210AC1F1040363
:1004F000CA40447804FA03F1847814402143090186
:10050000254C0678A155047804F01F050124AC4061
:1005100005786D114FF0E02606EB8505C5F8004122
:1005200009E0047804F01F050124AC401B4D067857
:10053000761145F8264070BD194A0A400243154B12
:100540001B1F1A60704739B1124A121D126802430C
:10055000104B1B1D1A6006E00E4A121D12688243E2
:100560000C4B1B1D1A607047042808D14FF0E02186
:10057000096941F004014FF0E022116107E04FF0FA
:10058000E021096921F004014FF0E0221161704778
:100590000000FA050CED00E000E400E080E100E07E
:1005A00080FFFF1F10B50446FA48844208D101219C
:1005B000401500F005FF0021601500F001FF17E075
:1005C000F548844208D10121001500F0F9FE002110
:1005D000201500F0F5FE0BE0F048844208D101211F
:1005E000C80300F0EDFE00214FF4004000F0E8FEEB
:1005F00010BD30B50246002000235068E84C204072
:100600000D790C6844EA0524204350609068E54C5D
:100610002040D1E902542C434D7944EA450420435B
:100620009060D06A20F470000C7C641EE4B2234316
:1006300040EA0350D06230BD002101600171417178
:100640008160C16001210174704721B1826842F06C
:100650000102826003E0826822F00102826070473A
:1006600021B1826842F48072826003E0826822F4E1
:1006700080728260704710B50023CBB21AB1446813
:100680001C43446002E044689C43446010BD8168A0
:1006900041F0080181607047014600208A6812F02D
:1006A000080F01D0012000E000207047816841F070
:1006B000040181607047014600208A6812F0040F2F
:1006C00001D0012000E00020704721B1826842F48F
:1006D000A002826003E0826822F4A0028260704778
:1006E000014600208A6812F4800F01D0012000E04A
:1006F0000020704710B50A4600210023416821F40C
:100700006041531E41EA4331416010BD21B142684E
:1007100042F40062426003E0426822F400624260F8
:100720007047F0B504460D4600200021092D11DD6B
:10073000E068A5F10A0606EB4607072606FA07F168
:100740008843A5F10A0606EB460603FA06F10843BC
:10075000E0600CE0206905EB4507072606FA07F183
:10076000884305EB450603FA06F108432061072A92
:100770000FDA606B561E06EB86071F2606FA07F196
:100780008843561E06EB860605FA06F108436063A9
:1007900022E00D2A0FDA206BD61F06EB86071F26F4
:1007A00006FA07F18843D61F06EB860605FA06F11E
:1007B0000843206310E0E06AA2F10D0606EB86070D
:1007C0001F2606FA07F18843A2F10D0606EB8606FE
:1007D00005FA06F10843E062F0BD21B1826842F4F7
:1007E0008012826003E0826822F480128260704787
:1007F0000146C86C80B2704766484C30006870474C
:1008000021B1426842F48062426003E0426822F40F
:1008100080624260704721B1426842F48052426077
:1008200003E0426822F48052426070470A46002189
:10083000816821F4E04111438160704721B18268F1
:1008400042F40042826003E0826822F40042826047
:10085000704721B1826842F40212826003E082682C
:1008600022F4021282607047014600208A6812F466
:10087000001F01D0012000E000207047F0B50446C1
:100880001546002000220026092911DDE068A1F1AB
:100890000A0707EB470C072707FA0CF29043A1F170
:1008A0000A0707EB470703FA07F21043E0600CE082
:1008B000206901EB410C072707FA0CF2904301EB8A
:1008C000410703FA07F210432061A06BC0F3015601
:1008D000EF1C06F1010CA7EB0C0707EB870C1F2799
:1008E00007FA0CF29043EF1C06F1010CA7EB0C0782
:1008F00007EB870701FA07F21043A063F0BD10B5BC
:100900000A4600210023816B21F44011531E41EA65
:100910000351816310BD08B5002300930090009B34
:100920000B440093009B1A6008BD08B502460020E6
:100930000090009201F12800009B1844009000985C
:10094000006880B208BD0A4600214168164B194074
:100950001143416070474162826270470A4600213C
:10096000416821F01F0111434160704740B10949BE
:100970000831096841F40001064A0832116007E0B5
:1009800004490831096821F40001024A0832116063
:10099000704700000024014000280140003C014055
:1009A000FFFEF0FFFDF7F1FFFFFD3FFF02460020D5
:1009B00013680B4201D0012000E000207047CA43B9
:1009C0000260704770B502460020002300240B121D
:1009D0005568CEB205EA060415681D4202D00CB176
:1009E000012000E0002070BD00220A12D343036002
:1009F0007047000001684FF6FE721140016000214F
:100A0000016041608160C1608C49884208D18B4996
:100A10000839496841F00F01884A083A51608AE074
:100A200086491431884208D184490839496841F01F
:100A3000F001824A083A51607DE0804928318842BD
:100A400008D17E490839496841F470617B4A083A07
:100A5000516070E079493C31884208D177490839C2
:100A6000496841F47041754A083A516063E073493E
:100A70005031884208D171490839496841F47021E0
:100A80006E4A083A516056E06C496431884208D198
:100A90006A490839496841F47001684A083A516066
:100AA00049E066497831884208D164490839496883
:100AB00041F07061614A083A51603CE06049884207
:100AC00006D1011F096841F00F01021F116032E0D9
:100AD0005B491431884208D15949091F096841F01E
:100AE000F001574A121F116025E05549283188420C
:100AF00008D15349091F096841F47061504A121F17
:100B0000116018E04E493C31884208D14C49091F18
:100B1000096841F470414A4A121F11600BE04849CC
:100B20005031884207D14649091F096841F47021B4
:100B3000434A121F1160704710B50022026847F641
:100B4000F0739A430C6A8B6823430C6923434C6906
:100B500023438C692343CC6923434C6A23438C6A27
:100B600023431A430260CB6843600B6883604B6881
:100B7000C36010BD0021016041608160C1600161FE
:100B800041618161C161016241628162704721B14D
:100B9000026842F00102026004E002684FF6FE7350
:100BA0001A40026070471AB103680B43036002E009
:100BB00003688B4303607047416070470146486893
:100BC00080B2704701460020002211F0805F03D000
:100BD0001B4B083B1A6802E0184B083B1A680A4294
:100BE00001D0012000E00020704710F0805F03D0AA
:100BF0001349091F086002E010490839486070472E
:100C000001460020002211F0805F03D00C4B083B0E
:100C10001A6802E0094B083B1A680A4201D0012019
:100C200000E00020704710F0805F03D00449091FE6
:100C3000086002E001490839486070470800024036
:100C400008040240002044490860091D0860091D8D
:100C50000860091D086041483F4914310860704729
:100C600000213D498279002A3AD00A461268036879
:100C70009A430B461A600A1D126803689A430B1DBB
:100C80001A60027911440A6803681A430A60324AFA
:100C90000832126803689A432F4B08331A601A1DF2
:100CA000126803689A432C4B0C331A604279102A5D
:100CB0000ED11A1F126803681A43274B08331A60B3
:100CC0001A1D126803681A43234B0C331A600DE097
:100CD0002149427911440A6803681A430A6005E011
:100CE000027911440A6803689A430A607047002138
:100CF000016001710C214171002181717047164919
:100D0000103109680143144A1032116070470146DE
:100D10000020114A143212680A4201D0012000E07A
:100D2000002070470C4914310860704701460020CC
:100D30000022094B1B6803EA0102074B14331B68AE
:100D40000B4202D00AB1012000E0002070470249A6
:100D5000143108607047000000040140FFFF0F00DD
:100D600010B50446CA48844208D10121042000F08D
:100D700027FB0021042000F023FB46E0C548844205
:100D800008D10121082000F01BFB0021082000F001
:100D900017FB3AE0C048844208D10121102000F03E
:100DA0000FFB0021102000F00BFB2EE0BB4884421B
:100DB00008D10121202000F003FB0021202000F0B9
:100DC000FFFA22E0B648844208D10121402000F019
:100DD000F7FA0021402000F0F3FA16E0B14884420F
:100DE00008D10121802000F0EBFA0021802000F0E2
:100DF000E7FA0AE0AC48844207D10121801500F0EF
:100E0000DFFA0021A01500F0DBFA10BD10B50121BA
:100E1000084600F0D5FA0021012000F0D1FA10BDFB
:100E20002DE9F04102460025002600200023002481
:100E3000002791F803C00CF00F0591F803C01CF0D7
:100E4000100F03D091F802C04CEA050591F800C0DC
:100E5000BCF1000F31D0146800202BE04FF0010CE2
:100E60000CFA00F3B1F800C00CEA03069E4220D150
:100E700083004FF00F0C0CFA03F7BC4305FA03FC98
:100E80004CEA040491F803C0BCF1280F06D14FF0DE
:100E9000010C0CFA00FCC2F814C00AE091F803C07F
:100EA000BCF1480F05D14FF0010C0CFA00FCC2F860
:100EB00010C0401C0828D1D31460B1F800C0BCF1A8
:100EC000FF0F34DD546800202EE000F1080C4FF0D5
:100ED000010808FA0CF3B1F800C00CEA03069E42C0
:100EE00021D183004FF00F0C0CFA03F7BC4305FA35
:100EF00003FC4CEA040491F803C0BCF1280F05D1AF
:100F000000F1080C08FA0CF8C2F8148091F803C03C
:100F1000BCF1480F07D100F1080C4FF0010808FAA6
:100F20000CF8C2F81080401C0828CED35460BDE8ED
:100F3000F0814FF6FF710180022181700421C170A0
:100F400070470246002093680B4201D0012000E068
:100F5000002070470146886880B270470246002032
:100F6000D3680B4201D0012000E000207047014609
:100F7000C86880B2704701617047416170470AB12B
:100F8000016100E041617047C16070474FF48032F9
:100F90000A43826181618261826982697047024687
:100FA0000020424B18684FF68073184040EA021048
:100FB00008433E4B186070473D49C8617047F0B523
:100FC0000A46002300240021002500F00046B6F167
:100FD000004F02D1354EF16901E0344E7168C0F323
:100FE000034583B200F44016B6F5401F08D121F046
:100FF00070612E4E766826F070662C4F7E6012E08F
:1010000000F48016B6F5801F06D1032606FA05F413
:10101000A14341F0706106E0460D360103FA06F681
:10102000B14341F0706122B1460D360103FA06F674
:10103000314300F00046B6F1004F02D11B4EF16182
:1010400001E01A4E7160F0BD30B500228B071C0F15
:101050000F2303FA04F2154B08338C1053F8243095
:101060009343124C08348D1044F8253023468C10DD
:1010700053F824308C07240F00FA04F423430B4C5C
:1010800008348D1044F8253030BD0A490860704797
:1010900000080140000C0140001001400014014014
:1010A00000180140001C01400020014000000140E8
:1010B00000002042DC002042DD48006840F00100D2
:1010C000DB49086008464068DA490840D84948606A
:1010D00008460068D8490840D549086008460068B5
:1010E00020F4802008600846406820F4FE00486034
:1010F0004FF41F0088607047CD49096821F48031A2
:10110000CB4A11601146096821F480211160B0F5C5
:10111000803F03D0B0F5802F0ED106E0C4490968A6
:1011200041F48031C24A116007E0C149096841F4C5
:10113000A021BF4A116000E000BF00BF704710B59A
:1011400001460022002300204A11012A02D1B84C96
:10115000236806E0022A02D1B54C236A01E0B44CB0
:10116000636A01F01F02012494401C4201D0012057
:1011700000E0002010BD38B50020009000240025BC
:1011800000BF3120FFF7DBFF05460098401C0090B0
:101190000098B0F5A06F01D0002DF2D03120FFF7FC
:1011A000CEFF08B1012400E00024204638BD0146EE
:1011B00000209F4A106820F0F80040EAC10010604B
:1011C00070479E490860704702460020984B586857
:1011D00020F47C1042EA01031843954B5860704795
:1011E00096490866704701460020914A506820F0F1
:1011F00003000843506070478D48406800F00C00C1
:101200007047014600208A4A506820F0F0000843E9
:101210005060704701460020854A506820F4E06025
:1012200008435060704701460020814A506820F40E
:10123000605040EAC1005060704729B17C4A527A40
:1012400002437B4B5A7204E0794A527A8243784BCC
:101250005A7270477A490860704701460020744A04
:10126000506820F440400843506070470021754AA0
:1012700011706F4A82F82010012802D0042808D18A
:1012800003E001216F4A117004E005216D4A1170DD
:1012900000E000BF00BF70476B49086070476449B9
:1012A000096A0143624A116270476749443908601C
:1012B000704730B500210022002400235C4D6D688A
:1012C00005F00C0121B1042905D0082923D105E03E
:1012D0005E4D056022E05D4D05601FE0544D6D6878
:1012E00005F47012524D6D6805F48034022505EB4B
:1012F00092421CB9564D554305600BE04C4D6D684C
:1013000015F4003F03D0524D5543056002E04F4DA8
:101310005543056002E04D4D056000BF00BF444DE0
:101320006D6805F0F00109094A4D6B5C0568DD4008
:1013300045603F4D6D6805F4E061090A454D6B5C01
:101340004568DD4085603A4D6D6805F46051C90A15
:10135000404D6B5C4568DD40C560354D6D6805F4FA
:101360004041890B3C4D6B5CC568B5FBF3F50561ED
:1013700030BD29B12E4A526902432D4B5A6104E017
:101380002B4A526982432A4B5A61704729B1284A35
:1013900092690243264B9A6104E0254A926982438E
:1013A000234B9A61704729B1214AD2690243204BED
:1013B000DA6104E01E4AD26982431D4BDA6170474C
:1013C00029B11B4AD2680243194BDA6004E0184A7B
:1013D000D2688243164BDA60704729B1144A126909
:1013E0000243134B1A6104E0114A12698243104B05
:1013F0001A61704714494039086070470F49C86442
:1014000070470B49C87170470948406A40F08070C6
:1014100007494862704701460020054A92680A421F
:1014200001D0012000E00020704701498872704718
:10143000001002400000FFF8FFFFF6FE00004242ED
:10144000D8004242201002408004424200127A003A
:1014500000093D00160000202600002010B50446BB
:10146000FB48844209D101218803FFF7A9FF00212D
:101470004FF48040FFF7A4FF32E0F648844209D1E0
:1014800001214804FFF7A9FF00214FF40030FFF7C6
:10149000A4FF25E0F048844209D101218804FFF728
:1014A0009CFF00214FF48020FFF797FF18E0EB48E6
:1014B000844209D10121C804FFF78FFF00214FF4B6
:1014C0000020FFF78AFF0BE0E548844208D10121A4
:1014D0000805FFF782FF00214FF48010FFF77DFF22
:1014E00010BD2DE9F04786B005460E460024A24601
:1014F00000BFA1460027B08900B100BF2F462C8A4B
:101500004CF6FF700440F08804432C82AC894EF600
:10151000F3100440B08831890843718908430443BB
:10152000AC81AC8A4FF6FF400440B0890443AC82E2
:1015300001A8FFF7BEFEC648874202D1DDF810A021
:1015400001E0DDF80CA0A88910F4004F08D00AEBE8
:10155000CA0000EB0A1031684900B0FBF1F807E05F
:101560000AEBCA0000EB0A1031688900B0FBF1F801
:101570006420B8FBF0F004012009642101FB10890C
:10158000A88910F4004F08D0322000EBC900B0FB4E
:10159000F1F000F00700044308E0322000EB0910EE
:1015A0006421B0FBF1F000F00F0004432C8106B081
:1015B000BDE8F0874FF41651016000218180C180A1
:1015C00001810C21418100218181704710B50246C3
:1015D0000020108A4FF2FF0318400B884C882343E9
:1015E0008C882343CC8823431843108210BD0021EC
:1015F000018041808180C180704721B1828942F49D
:101600000052828104E082894DF6FF731A40828184
:101610007047F0B503460024002600250020A1F500
:1016200010676A3F00D100BF1846C1F3421401F0B1
:101630001F06012707FA06F5012C01D10C3004E042
:10164000022C01D1103000E014301AB107682F438A
:10165000076002E00768AF430760F0BD1AB1838AF4
:101660000B43838202E0838A8B4383827047028A22
:101670004FF6F0731A400282028A0A4302827047D0
:1016800082894FF2FF731A40828182890A438281E4
:10169000704721B1828942F00202828104E082898E
:1016A0004FF6FD731A4082817047028A4FF6DF734E
:1016B0001A400282028A0A430282704721B1028ADA
:1016C00042F48042028204E0028A4BF6FF731A4021
:1016D00002827047C1F30802828070470146888801
:1016E000C0F308007047818941F001018181704792
:1016F000028BD2B20283028B42EA0122028370473C
:10170000028B02F47F420283028B0A4302837047FA
:1017100021B1828A42F02002828204E0828A4FF65E
:10172000DF731A408282704721B1828A42F0100230
:10173000828204E0828A4FF6EF731A4082827047F9
:1017400021B1828A42F00802828204E0828A4FF646
:10175000F7731A408282704721B1828942F40042B5
:10176000828103E08289C2F30E028281704721B137
:10177000828A42F40062828204E0828A4FF2FF731E
:101780001A4082827047828A4FF6FB731A40828227
:10179000828A0A438282704721B1828A42F0020221
:1017A000828204E0828A4FF6FD731A40828270477B
:1017B00002460020B1F5007F00D100BF13880B4224
:1017C00001D0012000E00020704701F40072B2F562
:1017D000007F00D100BFCA430280704770B5024647
:1017E0000024002300250020A1F510666A3E00D1E8
:1017F00000BFC1F3421501F01F03012606FA03F3EF
:10180000012D02D19689334006E0022D02D1168ABD
:10181000334001E0968A33400C12012606FA04F4A4
:101820001688344013B10CB1012000E0002070BDD7
:1018300010B500220023A1F510646A3C00D100BF5E
:101840000A1201249440A3B2DC43048010BD0000BE
:10185000003801400044004000480040004C004077
:1018600000500040002107E042F6E06100BF0A009E
:10187000A1F1010399B2FAD10200A0F1010398B2DB
:10188000F2D1704700B585B001214FF40170FFF728
:101890007DFD4FF40040FFF7E0FCB448FEF782FE08
:1018A000002000908DF8040001208DF805004FF411
:1018B000602002900020039001208DF810006946FE
:1018C000AA48FEF796FE0120FFF750F80121A7482D
:1018D000FEF7C6FE0121A548FEF7B7FEA348FEF7B6
:1018E000D6FE00BFA148FEF7D7FE0028FAD19F48D8
:1018F000FEF7DCFE00BF9D48FEF7DDFE0028FAD1B2
:1019000005B000BD00B58BB001210846FFF731FDE1
:101910009748FFF76FF80020029003200390002003
:1019200004904FF48070069080000790202008906B
:101930000002099000200A9069468D48FFF7FCF8E4
:1019400001218B48FFF723F90BB000BD89480068DF
:101950008849086000BF00BF30BF70471FB5012134
:101960000520FFF713FD0220ADF80C0048208DF88C
:101970000F0003A98048FFF753FA1020ADF80C00C0
:1019800048208DF80F0003A97B48FFF749FA012191
:101990000020FFF759FB0220009000208DF8040082
:1019A00008208DF8050001208DF806000421002094
:1019B000FFF74AFB1020009000208DF804000C2057
:1019C0008DF8050001208DF806006846FFF748F9FC
:1019D00007208DF8080001208DF8090000208DF8FF
:1019E0000A0001208DF80B0002A8FEF772FD0A2004
:1019F0008DF8080002208DF8090001208DF80A00FA
:101A00008DF80B0002A8FEF764FD02215A48FFF78B
:101A100098FA012801D0FFF799FF1FBD10B50446C1
:101A20000723012221465148FEF77BFE01214F4842
:101A3000FEF74BFE00BF02214C48FEF7B7FF00281F
:101A4000F9D04A48FEF7D4FE10BD70B50024002539
:101A500009E01020FFF7E2FF204484B20520FFF7E1
:101A600001FF681CC5B20A2DF3DB0A2094FBF0F0DD
:101A700080B270BD2DE9F04107460C4600250026D6
:101A800008E03846FFF7CAFF05440520FFF7EAFEE5
:101A9000701CC6B2A642F4DBB5FBF4F080B2BDE820
:101AA000F0812DE9F05F14211020FFF7E3FF83465A
:101AB000584600F067FF804600F038FF06464FF0BA
:101AC00066322E4B00F04AFD04460D4622462B4658
:101AD0002B482C4900F040FE80462B4A2B4B00F04F
:101AE000B5FB064600222A4B00F008FB04460D46D3
:101AF0002046294600F002FD0FFA80FA5046BDE864
:101B0000F09F00B5FFF722FF00BD10B50220FFF7E0
:101B10001EF91848006840F01000164908601DA022
:101B200000F0B2F9C82000F081F802211248FFF756
:101B300008FA012806D180210F48FFF71CFAFFF7A9
:101B4000E0FF04E04FF480710B48FFF714FA10BD7A
:101B500010B51020FFF7FBF80648006840F01000B1
:101B6000044908600FA000F08FF910BD0024014067
:101B70000800024010ED00E00008014066664A3FA0
:101B8000E17A14AE47E1F63F22FDF675E09C713F25
:101B900000003940455854495F4C494E45310D0AC3
:101BA0000000000045585449204C494E45340D0A68
:101BB0000000000010B56FF00400FEF7D5FC2D48C2
:101BC00000682D49B0FBF1F02C49087008460078F8
:101BD00000EB4001C1EBC0104FF6FF7101EAC000FD
:101BE0002749088010BD0146244A12784A434FF025
:101BF000E0235A6100229A611A46126942F00102FA
:101C00001A6100BF4FF0E022106910F0010F02D0FE
:101C100010F4803FF6D04FF0E022126922F001026A
:101C20004FF0E0231A6100229A6170470146144A7E
:101C300012884A434FF0E0235A6100229A611A4603
:101C4000126942F001021A6100BF4FF0E0221069F0
:101C500010F0010F02D010F4803FF6D04FF0E022D8
:101C6000126922F001024FF0E0231A6100229A610A
:101C7000704700000000002000127A002A000020B7
:101C80002C000020014600BF704700BF6E4A12883A
:101C900012F0400FFAD0C2B26B4B1B1D1A80704776
:101CA00010B592B00446012144F20400FFF76EFB28
:101CB00001210846FFF75DFB01214804FFF773FB94
:101CC0006148FFF7CBFB4FF40070ADF844000320F0
:101CD0008DF8460018208DF8470011A95B48FFF7E2
:101CE0009FF84FF48060ADF8440004208DF8470061
:101CF00011A95648FFF794F825208DF830000320ED
:101D00008DF831008DF8320001208DF833000CA8D9
:101D1000FEF7DFFB0D940020ADF83800ADF83A0077
:101D2000ADF83C00ADF840000C20ADF83E000DA928
:101D30004548FFF7D6FB012240F224414248FFF715
:101D400068FC012240214048FFF788FC01213E4801
:101D5000FFF753FC3E48FEF74DFE3B48001D019047
:101D60003C48029000200390C82004900020059079
:101D70008020069000200790089009904FF4805032
:101D80000A9000200B9001A93148FEF7D5FE0121F1
:101D90002F48FEF7FCFE12B010BD10B5044600211E
:101DA0002046FEF7F4FEC8212046FEF705FF01217C
:101DB0002046FEF7ECFE10BD70B505460E46002429
:101DC0000CE000BF40212048FFF7F2FC0028F9D0CA
:101DD000295D1D48FFF77EFC601CC4B2B442F0DBF5
:101DE00000BF40211848FFF7E3FC0028F9D070BD80
:101DF00010B540F224411448FFF7F0FC002821D030
:101E00001148FFF76BFC1248FEF7D8FEC0F1C8007E
:101E1000114908800846018810A000F035F813A089
:101E200000F032F80C4801780A48FFF7C5FF12A00D
:101E300000F02AF840F224410348FFF7F9FC044877
:101E4000FFF7ABFF10BD0000003801400008014063
:101E500058000240380000203000002054686520FF
:101E60006C656E6768743A25640D0A0054686520D5
:101E7000646174613A0D0A000D0A4F766572212083
:101E80000D0A0000704700000FB4044910B503AA02
:101E9000029800F0D5F810BC5DF814FB3400002067
:101EA0002DE9F0410E460446002020622046E168FC
:101EB000884730B3252805D0D4E901219047206A0E
:101EC000401CF2E7E168204600278847050018D04B
:101ED000A5F14100192802D820354FF40067324699
:101EE000294620462760FEF73BF940B1012804D07F
:101EF000F61D26F007060836D8E7361DD6E7284631
:101F0000DAE7206ABDE8F0812DE9F04106460024B9
:101F100010687529314616A511D0AFF3008000284E
:101F200003DAC0F1000013A507E031688A0701D584
:101F300011A502E0490704D510A5012401E0AFF383
:101F4000008000210A2306F1240707E0B0FBF3F22A
:101F500003FB1200303078541046491C0028F5D19C
:101F600023462A463046BDE8F04100F00DB8000097
:101F7000000000002D0000002B00000020000000E9
:101F800070477047704770472DE9F0470D469946F6
:101F90009246044600F124080168880604D5E069E9
:101FA00021F01001216000E00120A84202DDA0EB39
:101FB000050700E00027A16907EB050202EB090015
:101FC000A1EB0000A0612078C00602D42046AFF348
:101FD0000080002608E0D4E901211AF806009047A5
:101FE000206A401C761C20624E45F4DB2078C00637
:101FF0000AD52046AFF3008006E0D4E90121302065
:102000009047206A401C2062381EA7F10107F4DCCB
:1020100007E0D4E9012118F805009047206A401C28
:102020002062281EA5F10105F3DC2046AFF30080F5
:102030002078000602D50220BDE8F0870120FBE7EA
:10204000074B70B50D467B4400F011F80446284656
:1020500000F020F810B14FF0FF3070BD204670BD89
:1020600041FCFFFF01694A1C02610878704700B516
:102070008FB0CDE901310021059105497944CDE9C1
:10208000031011466846FFF70BFF0FB000BD0000BC
:10209000E5FFFFFF007B00F080007047754600F011
:1020A00029F8AE4605006946534620F007008546EC
:1020B00018B020B5FEF77AF8BDE820404FF00006D2
:1020C0004FF000074FF000084FF0000B21F0070120
:1020D000AC46ACE8C009ACE8C009ACE8C009ACE863
:1020E000C0098D4670470446AFF300802046FEF7D6
:1020F00049F80000004870470001002010B591EA3F
:10210000030F48BF83F0004300F12E83841A71EB64
:10211000030C05D2121943EB0C03001B61EB0C01FD
:10212000DFF824E14FEA1154A4EB135C1EEA430FDD
:1021300018BF9EEA445F73D023EA0E03DCF1200E41
:1021400021EA045143F4801332D322FA0CFE10EB3F
:102150000E0023FA0CFE41EB0E01CCF1200E03FA27
:102160000EFE10EB0E0051F10001B1F5801FCCF115
:10217000200E32D201EB045112FA0EF2BDE81040EB
:1021800058BF7047401C38BF5FEA420218BF704713
:10219000002814BF20F0010041F100014FEA410383
:1021A00013F5001F38BF7047A1F1C04100F0CEBA4F
:1021B000012A43EB0302ACF1200CDCF11F0E32BF0D
:1021C0004FF0000E23FA0CF310EB030041EB045127
:1021D000B4EB115FD0D0A1EB045101F58011490897
:1021E0005FEA300001EB04510ED350F1000038BF1C
:1021F00012FA0EFE08D1BDE81040C9E7401C38BFF6
:102200005FEA4202CAD1C3E7BDE810404FEA41038A
:1022100013F5001F38BF7047A1F1C04100F096BA16
:102220009EEA445F08D011EA5E0FBDE8104004BF8B
:1022300001F0004100207047BDE8104070B500F08B
:1022400037FA00BF64FBBE3E0000E0FF2DE9C0414D
:1022500030B4DFF8A0C23CEA111418BF3CEA1314F2
:1022600000F0EC8081EA03051CEA111444EAD574FD
:1022700018BF1CEA131500F0C780A4EB05044FF04B
:10228000004545EAC12145EAC32341EA505143EAEA
:10229000525304F17F74994204F500344FEAC02090
:1022A0004FEAC22208BF904200F09C804FEA1365BB
:1022B0000FF24016765D4FEA134506FB05F7C7F1AE
:1022C000807706FB07F74FEAD737A7FB036876420C
:1022D000C8F58038A7FB06CE38BFA8F1010807FB78
:1022E00008E64FF0000EA6FB028CE6FB03CEDCF105
:1022F000000CCEF1004E38BFAEF1010EA6FB0C581B
:102300004FF000074FF00005E6FB0E87A1FB08C663
:10231000A0FB07CE16EB0E0645F10005E1FB0765B5
:1023200015F1E04E7EBFA4F580345FEA46066D41AC
:1023300016F1800745F100054FEA17274FEA0666B8
:1023400047EA0567A6F1DE46B6F1805F4FEA15253C
:102350001FD9384624F0010C05EBC471BCF1FE6FA7
:1023600001EB0C1102D8F0BCBDE8008124425CBF37
:1023700001F5801E9EEAC47F02D4F0BCBDE8008156
:10238000244238D4F0BCA1F1C041BDE8004100F0C6
:10239000DDB94FEAD22242EA43524FEAD323A7FBE8
:1023A00002864FEAD02040EA415007FB03661EEA4E
:1023B0000E0F4FEAD12105FB026658BFA6EB00566F
:1023C000B6EB00564FEA520E4EEAC37E18EB0E0EE5
:1023D00056EB530EBDD518EB02085E417F1C55F13C
:1023E0000005B6E74FF480154FF000074FF00006E8
:1023F0004FF00008ADE7F0BC4FF0000001F1C04124
:1024000001F00041BDE8008111EA0C1F0CEA131530
:1024100000D00CE013EA0C1F00F025804FF0000004
:10242000F0BC81EA030101F00041BDE80081F0BC8D
:10243000BDE8004181EA030100F088B9F0BCBDE8C5
:10244000004170B500F034F9097EFC3E00F007B899
:1024500081EA03014FF0000001F00041704781EA7A
:10246000030100F073B9F0BCBDE800414FF000007B
:1024700021497047FFFDFBF9F7F5F4F2F0EEEDEBC3
:10248000E9E8E6E4E3E1E0DEDDDBDAD8D7D5D4D372
:10249000D1D0CFCDCCCBCAC8C7C6C5C4C2C1C0BFBE
:1024A000BEBDBCBBBAB9B8B7B6B5B4B3B2B1B0AFC4
:1024B000AEADACABAAA9A8A8A7A6A5A4A3A3A2A1A8
:1024C000A09F9F9E9D9C9C9B9A9999989797969563
:1024D00095949393929191908F8F8E8E8D8C8C8BFF
:1024E0008B8A898988888787868585848483838287
:1024F000828181800000FF070000F87F4FEA4103DE
:102500004FEA5353A3F58063D3F11E03C8BFD3F141
:10251000210C0CDD4FF0004242EAC12242EA505247
:1025200032FA03FC8CEAE17CACEBE1707047102BD3
:10253000C4BF0020704703F5787CBCF1FF3F04D096
:102540006FF0004282EA2100704770B500F0B0F8E9
:102550004992248000207047F2E70000DFF848C16C
:1025600070B51CEA111E1EBF1CEA13159EEA0C0F63
:1025700095EA0C0F00F06F8081EA030423EA4C1304
:102580004EEAD47E21EA4C1141F4801143F48013C9
:10259000AE44A1FB024CA0FB0365AEF17F7E361971
:1025A00055EB0C05A1FB034C4CF10003A0FB021CF6
:1025B00016EB0C06654153F10003094218BF46F0C3
:1025C000010613F4007F0BD14FEA03314FEA0530C7
:1025D000340341EA155140EA16506FF003020AE055
:1025E0004FEAC3214FEAC520F40241EA555140EABF
:1025F00056506FF0020202EB2E4201EB025585EAC3
:10260000CE710AD05FEA440C18BF24F0004450F1A8
:10261000000041F1000120EAD47040F2FE7C6245E6
:1026200000D270BDA84214BF4FF080444FF0404428
:10263000002E08BF0024BEF1806FA8BFA1F1C041E9
:10264000BDE8704080F282804FF0000001F1C0418F
:1026500001F0004170479EEA0C0F0CEA131518BFF9
:1026600095EA0C0F06D04FF0000081EA030E0EF041
:10267000004170BD00F01CF88900013E00F007B871
:1026800000F009B84FEA430C5FEA5C5C08D081EACD
:10269000030100F05BB84FEA410C5FEA5C5CF6D1E5
:1026A0004FF00000014970470000FF070000F87F6D
:1026B0000EF1020E2EF0030E5EF8046B364205D4C6
:1026C000012A43EB030515F5001F12D8012841EB41
:1026D000010C1CF5001F0CD80ED14FEAD17C15F56A
:1026E000001F0CEB4C0C0CF1020C08BF4CEBD37C24
:1026F00004E04FF0080C01E04FEAD37C0CEB4C05F2
:1027000026FA05F606F00706B6F1040C06D20EEB23
:10271000860CBDE870404CF0010C6047DFE80CF01F
:10272000090B02024FF000414FF00000A1F500211B
:1027300070BD19461046012851EB010418BFD4F5AD
:10274000001484BF002001F0004170BD0808A0F50E
:1027500000114FEA3101704710B591EA030F48BFED
:1027600083F000433FF5D2AC841A71EB030C07D21F
:1027700012198CF0004C43EB0C03001B61EB0C01B5
:10278000DFF8A4E14FEA1154A4EB135C1EEA430FF7
:1027900018BF9EEA445F00F0B08023EA6E03524205
:1027A00021EA0451C3EB6E0338BF5B1EDCF1200E3F
:1027B00025D322FA0CFE10EB0E0043FA0CFE41EB7F
:1027C0000E01CCF1200E03FA0EFE10EB0E0051F1BB
:1027D0000001CCF1200E29D412FA0EF201EB0451C3
:1027E000BDE8104058BF7047401C1CBFB2F1004FFD
:1027F000704700280CBF491C20F00100704712EB05
:10280000020E43EB030218BF4FF0010E4EEA4202E4
:10281000ACF1200CDCF11E0E54D943FA0CFE10EB87
:102820000E0051F1FF31CCF11E0ED5D50EF1010E87
:1028300012FA0EFE404141EB010101EB445C5FEAFC
:102840005C5C10D910EBDE7001EB045138BFBEF1B7
:10285000004FBDE8104018BF704700280CBF491C4E
:1028600020F00100704730D24FEAD42C11F500114E
:1028700024F400641BD0B1FA81F20B3AA41AA41E0E
:10288000D2F12003914030FA03F31943904001EB59
:10289000CC71002C01EB0451BDE81040A8BF70477B
:1028A00001F1C0414FF0000001F000417047B0FA63
:1028B00080F310FA03F100D110BDE41A173C48056B
:1028C000C90AE4E701EB045110BD491001EB0451C2
:1028D000BDE810404FEA300002E04FF000017047C1
:1028E0004A0008BF0042F8D0B2F5001F28BF704769
:1028F00001F000414FF0000070479EEA445F07D0AE
:1029000011EA5E0FBDE8104004BF002100207047AF
:10291000BDE8104070B5FFF7CBFE00BF40DFF63ECC
:1029200083F00041104670470000E0FF43004FEA8B
:10293000D30C4FEA3C0C43401FBF40070CF16051E1
:1029400013F0FE4F70471CF0006F03D100200CF015
:10295000004170470CF0004343EA507010B540EA64
:10296000CC0000F022F800BF000000924FEA000106
:10297000FFF7ECBE4FF000414FF00000A1F5002141
:1029800070470000B0FA80F310FA03F2C3F19D0320
:102990000AD0D90501EB1220530638BF704700F169
:1029A000010008BF20F0010070470EF1020E2EF06A
:1029B000030E5EF8044B244204D44FEA4102B2F104
:1029C0007F4F11D84FEA4003B3F17F4F0CD80ED19F
:1029D0004FEAD07CB2F17F4F0CEB4C0C0CF1020CA7
:1029E00008BF4CEBD17C04E04FF0080C01E04FEA4B
:1029F000D17C0CEB4C0324FA03F404F00704B4F18B
:102A0000040C06D20EEB840CBDE810404CF0010C17
:102A10006047DFE80CF0070802024FF00040A0F525
:102A2000800010BD0846420018BFD2F1807288BFF6
:102A300000F0004010BD0000582A000800000020EF
:102A40003800000028010008902A00083800002003
:102A5000280700004401000800A24A04000000000A
:102A6000000000000102030406070809000000003E
:102A7000000001020304010203040607080902041E
:102A80000608000000000000000000000000000038
:04000005080000ED02
:00000001FF
